:100000000C94F20E0C941C0F0C941C0F0C941C0FEF
:100010000C941C0F0C941C0F0C941C0F0C941C0FB4
:100020000C941C0F0C941C0F0C941C0F0C941C0FA4
:100030000C941C0F0C944A970C941C0F0C941C0FDE
:100040000C941C0F0C94C16B0C9442A80C941C0FC4
:100050000C946A4C0C941C0F0C941C0F0C941C0FE9
:100060000C941C0F0C941C0F0C941C0F0C941C0F64
:100070000C941C0F0C941C0F0C941C0F0C941C0F54
:100080000C941C0F0C941C0F0C941C0FB165B465E0
:10009000A765AB65CB65CB65B865BC65C265C66554
:1000A0008A668F6694669E66CC66CC66A866B066E5
:1000B000B866C2660B6C176C336C3F6C596C5B6C2A
:1000C0005D6C5F6C616C6D6C996C084AD73B3BCE84
:1000D000016E84BCBFFDC12F3D6C74319ABD568347
:1000E0003DDA3D00C77F11BED9E4BB4C3E916BAAFF
:1000F000AABE000000803F05A84CCDB2D44EB9384E
:1001000036A9020C50B9918688083CA6AAAA2ABE34
:10011000000000803F000A00207A3A200020793A4F
:10012000200020783A2000426564000A00207A3AD4
:10013000200020793A200020783A20002F005344F4
:10014000207072696E74696E672062797465200030
:100150004E6F74205344207072696E74696E67002C
:100160002E0044656C6574696F6E206661696C650C
:10017000642C2046696C653A200046696C652064F1
:10018000656C657465643A002E006F70656E20665C
:1001900061696C65642C2046696C653A20005049A1
:1001A00044204175746F74756E652066696E69735D
:1001B000686564212050757420746865206C6173D3
:1001C00074204B702C204B6920616E64204B64209E
:1001D000636F6E7374616E74732066726F6D2061ED
:1001E000626F766520696E746F20436F6E66696713
:1001F00075726174696F6E2E6800504944204175B4
:10020000746F74756E65206661696C656421207415
:10021000696D656F75740020403A006F6B20543A29
:10022000006F6B20423A00504944204175746F744E
:10023000756E65206661696C6564212054656D701A
:100240006572617475726520746F6F206869676884
:1002500000204B643A2000204B693A2000204B706C
:100260003A200020436C6173736963205049442035
:10027000002054753A2000204B753A2000206D6113
:10028000783A2000206D696E3A200020643A200000
:1002900020626961733A20002200556E6B6E6F77A1
:1002A0006E20636F6D6D616E643A2022005A204F9C
:1002B0006666736574203A20007A5F6D61783A2033
:1002C000007A5F6D696E3A20005A204F666673654A
:1002D00074005A204F6666736574206F6B007A5FF6
:1002E0006D696E3A2000795F6D696E3A2000785F23
:1002F0006D696E3A2000205A3A0020593A00204396
:100300006F756E7420583A200020453A00205A3A02
:100310000020593A00583A004649524D574152453B
:100320005F4E414D453A4D61726C696E20312E3001
:100330002E322B20446576656C6F706D656E74206F
:1003400046726F6D204172636869766520534F5520
:100350005243455F434F44455F55524C3A6874746D
:1003600070733A2F2F6769746875622E636F6D2FF3
:100370004D61726C696E4669726D776172652F4D61
:1003800061726C696E2050524F544F434F4C5F5610
:10039000455253494F4E3A312E30204D4143484942
:1003A0004E455F545950453A54524F4E5859205873
:1003B000332045585452554445525F434F554E548F
:1003C0003A3120555549443A3030303030303030B1
:1003D0002D303030302D303030302D303030302D29
:1003E0003030303030303030303030300A0054521D
:1003F0004F4E5859205833204F66662E0042656490
:1004000020646F6E652E0020423A0020453A005469
:100410003A004265642048656174696E672E004841
:10042000656174696E6720646F6E652E0020573AAF
:100430000020453A00543A0048656174696E672EA1
:100440002E2E002042403A0020403A00202F003A51
:1004500000205400202F0020423A00202F006F6B14
:1004600020543A000A0A005374616E646172642079
:10047000446576696174696F6E3A20000A004D65C3
:10048000616E3A20000A002020207A3A200000798C
:100490003A2000783A20003F5370656369666965C9
:1004A00064206E756D626572206F66206C6567737F
:1004B00020696E206D6F76656D656E74206E6F7449
:1004C00020706C61757361626C652E0A003F537019
:1004D00065636966696564205920706F7369746922
:1004E0006F6E206F7574206F662072616E67652E67
:1004F0000A003F537065636966696564205820701F
:100500006F736974696F6E206F7574206F662072E7
:10051000616E67652E0A003F5370656369666965A1
:10052000642073616D706C652073697A65206E6FED
:100530007420706C61757361626C652E0A0046757B
:100540006C6C20737570706F72742061743A2068DF
:100550007474703A2F2F33647072696E74626F61B5
:1005600072642E636F6D2F666F72756D2E7068707A
:100570000A004D3438205A2D50726F626520526542
:10058000706561746162696C6974792074657374F3
:100590002E20202056657273696F6E20322E303007
:1005A0000A003F566572626F7365204C6576656C14
:1005B000206E6F7420706C61757361626C652E0AB9
:1005C000002569206D696E2C202569207365630004
:1005D000456E642066696C65206C697374004265C1
:1005E00067696E2066696C65206C697374004E6F74
:1005F000206D6F76652E0054524F4E585920583357
:100600002072656164792E00526573756D696E673D
:10061000207072696E74005761697420666F722071
:10062000757365722E2E2E000A00205A3A20002083
:10063000593A200020583A20004265640020643A6C
:10064000200020623A200045716E20636F65666667
:10065000696369656E74733A20613A2000486F6D72
:100660006520582F59206265666F7265205A0048D0
:100670006F6D6520582F59206265666F7265205A2C
:10068000005A2070726F6265206F75742E2062654B
:1006900064005A2070726F6265206F75742E20623C
:1006A000656400486F6D6520582F59206265666F3C
:1006B0007265205A00486F6D6520582F5920626579
:1006C000666F7265205A00536C6565702E2E2E0081
:1006D00053657474696E67732053746F7265640038
:1006E0002044002049002020204D3330312050008C
:1006F0005049442073657474696E67733A00205AD8
:100700000020590020204D323036205800486F6DAF
:1007100065206F666673657420286D6D293A002028
:100720004500205A0020580020420020540020207C
:100730004D323035205300416476616E636564202C
:100740007661726961626C65733A20533D4D696EE2
:1007500020666565647261746520286D6D2F73294C
:100760002C20543D4D696E2074726176656C206654
:100770006565647261746520286D6D2F73292C2066
:10078000423D6D696E696D756D207365676D656E4F
:10079000742074696D6520286D73292C20583D6D77
:1007A0006178696D756D205859206A65726B2028D3
:1007B0006D6D2F73292C20205A3D6D6178696D7500
:1007C0006D205A206A65726B20286D6D2F73292C5D
:1007D0002020453D6D6178696D756D2045206A6505
:1007E000726B20286D6D2F73290020540020204D3E
:1007F000323034205300416363656C657261746903
:100800006F6E3A20533D616363656C657261746914
:100810006F6E2C20543D7265747261637420616345
:1008200063656C65726174696F6E00204500205AC3
:100830000020590020204D3230312058004D617881
:10084000696D756D20416363656C65726174696F74
:100850006E20286D6D2F7332293A00204500205AF2
:100860000020590020204D3230332058004D61784F
:10087000696D756D206665656472617465732028A5
:100880006D6D2F73293A00204500205A0020590031
:1008900020204D39322058005374657073207065E4
:1008A0007220756E69743A0053746F7265642073B8
:1008B000657474696E6773207265747269657665B4
:1008C000640048617264636F6465642044656661B6
:1008D000756C742053657474696E6773204C6F6116
:1008E000646564002200656E717565696E6720221B
:1008F000004D383420582059205A204500256920C1
:10090000686F757273202569206D696E75746573E3
:1009100000446F6E65207072696E74696E67206640
:10092000696C650053544F505045442E200050725E
:10093000696E7465722073746F707065642064757D
:100940006520746F206572726F72732E204669780D
:1009500020746865206572726F7220616E64207504
:100960007365204D39393920746F20726573746155
:1009700072742E202854656D70657261747572658D
:100980002069732072657365742E20536574206925
:100990007420616674657220726573746172746923
:1009A0006E6729004E6F204C696E65204E756D6232
:1009B0006572207769746820636865636B73756D11
:1009C0002C204C617374204C696E653A20004E6F88
:1009D00020436865636B73756D2077697468206C5C
:1009E000696E65206E756D6265722C204C61737442
:1009F000204C696E653A2000636865636B73756DA2
:100A0000206D69736D617463682C204C6173742070
:100A10004C696E653A20004C696E65204E756D62BA
:100A20006572206973206E6F74204C617374204C62
:100A3000696E65204E756D6265722B312C204C619C
:100A40007374204C696E653A20004D3131300020BE
:100A5000746F6F206C6F6E67206578747275736940
:100A60006F6E2070726576656E7465640020636FCA
:100A70006C6420657874727573696F6E207072652E
:100A800076656E7465640000002100240027002A4A
:100A90000000002200250028002B00000020002379
:100AA00000260029000202020202020202040404DB
:100AB0000404040404030303030303030301010107
:100AC000010101010101020408102040800102041B
:100AD000081020408001020408102040808040203F
:100AE00010080402010000000102000000000000E4
:100AF00000040308070000000000000000000000E0
:100B000000000000002020506C616E6E657242751E
:100B10006666657242797465733A20002046726594
:100B200065204D656D6F72793A200044656320330E
:100B300030203230313600436F6D70696C65643A35
:100B40002000286E6F6E652C2064656661756C747C
:100B500020636F6E6669672900207C204175746888
:100B60006F723A20004465632033302032303136D2
:100B70002031303A34393A303500204C61737420DA
:100B8000557064617465643A200020312E302E3235
:100B90002B004D61726C696E0020536F6674776133
:100BA00072652052657365740020576174636864D0
:100BB0006F67205265736574002042726F776E20F4
:100BC0006F75742052657365740020457874657282
:100BD0006E616C20526573657400506F7765725555
:100BE00070007374617274006572726F7220777234
:100BF0006974696E6720746F2066696C6500656E44
:100C00006473746F7073206869743A205A00205AB4
:100C10003A00656E6473746F7073206869743A206B
:100C2000590020593A00656E6473746F70732068C0
:100C300069743A20580020583A00656E6473746FE6
:100C40007073206869743A2000446F6E6520736188
:100C500076696E672066696C652E006F6B004D3299
:100C60003900202D20496E76616C696420657874A6
:100C70007275646572206E756D6265722021001058
:100C800000C902E0002C01000122013001180170AE
:100C9000010E01B00104010002FA00E001F000F0D1
:100CA00002E6009003DC004004D2004005C800408A
:100CB00006BE000008B400B009AA00D00BA0006076
:100CC0000E960060118C000015820020197800C07B
:100CD0001D6E00A0226400B0275A00902C50000026
:100CE000314600E0343C0010383200903A28006071
:100CF0003C1E00A03D1400803E0A00203F0000453D
:100D000072723A204D415854454D50003A20457872
:100D100074727564657220737769746368656420A2
:100D20006F66662E204D415854454D5020747269AF
:100D30006767657265642021004572723A204D49EB
:100D40004E54454D50003A20457874727564657272
:100D5000207377697463686564206F66662E204D22
:100D6000494E54454D5020747269676765726564D9
:100D70002021004572723A204D415854454D502073
:100D80004245440054656D706572617475726520EA
:100D90006865617465642062656420737769746353
:100DA000686564206F66662E204D415854454D504D
:100DB00020747269676765726564202121002D2D9A
:100DC0003A2D2D002D2D2D005344002059000120D7
:100DD0000001200057726974696E6720746F206685
:100DE000696C653A20002E006F70656E206661693F
:100DF0006C65642C2046696C653A20002E006F708B
:100E0000656E206661696C65642C2046696C653A84
:100E1000200046696C652073656C656374656400C9
:100E20002053697A653A200046696C65206F7065C9
:100E30006E65643A20002E006F70656E20666169F1
:100E40006C65642C2046696C653A20004E6F7720F3
:100E500066726573682066696C653A20004E6F772C
:100E600020646F696E672066696C653A20002220F5
:100E7000706F73002220706172656E743A220053A5
:100E80005542524F5554494E452043414C4C2074D5
:100E900061726765743A2200747279696E672074B2
:100EA0006F2063616C6C207375622D67636F64657E
:100EB0002066696C6573207769746820746F6F2091
:100EC0006D616E79206C6576656C732E204D41588E
:100ED000206C6576656C2069733A00534420636129
:100EE0007264206F6B006F70656E526F6F74206656
:100EF00061696C656400766F6C756D652E696E69ED
:100F000074206661696C6564004572726F723A00A4
:100F1000534420696E6974206661696C006563687A
:100F20006F3A004D3234004D323320257300617525
:100F3000746F25692E670053746F7265206D656D3F
:100F40006F72790042656400426564004E6F7A7A80
:100F50006C65004E6F7A7A6C650046616E20737026
:100F60006565640046616E20737065656400546554
:100F70006D70657261747572650045737465707328
:100F80002F6D6D004573746570732F6D6D005A730E
:100F9000746570732F6D6D005A73746570732F6D67
:100FA0006D005973746570732F6D6D00597374659E
:100FB00070732F6D6D005873746570732F6D6D00B5
:100FC0005873746570732F6D6D00412D7265747266
:100FD00061637400412D7265747261637400416DC8
:100FE0006178206500416D6178206500416D617810
:100FF000207A00416D6178207A00416D6178207916
:1010000000416D6178207900416D61782078004160
:101010006D61782078005654726176206D696E009B
:101020005654726176206D696E00566D696E005679
:101030006D696E00566D6178206500566D6178208F
:101040006500566D6178207A00566D6178207A00CF
:10105000566D6178207900566D6178207900566D63
:101060006178207800566D617820780056652D6A89
:1010700065726B0056652D6A65726B00567A2D6A33
:1010800065726B00567A2D6A65726B005678792D01
:101090006A65726B005678792D6A65726B004163E0
:1010A00063656C00416363656C005A204F6666732C
:1010B0006574005A204F666673657400436F6E74E2
:1010C000726F6C007C3C3E5E2B3D3F2F5B5D3B2C8A
:1010D0002A225C00526573746F7265206661696CC8
:1010E00073616665004C6F6164206D656D6F727928
:1010F0000053746F7265206D656D6F72790046697B
:101100006C616D656E74004D6F74696F6E0054652F
:101110006D7065726174757265004D61696E005025
:101120007265686561742041425320636F6E66008A
:101130005072656865617420504C4120636F6E6623
:10114000005049442D43005049442D430050494428
:101150002D44005049442D44005049442D4900502D
:1011600049442D49005049442D50005049442D50C8
:1011700000200220466163740020022046616374EF
:10118000002002204D6178002002204D617800206F
:1011900002204D696E002002204D696E004F666688
:1011A000004F6E20004F6666004F6E200041757440
:1011B0006F74656D700046616E20737065656400C4
:1011C00046616E2073706565640042656400426527
:1011D00064004E6F7A7A6C65004E6F7A7A6C6500A7
:1011E000436F6E74726F6C0053746F7265206D651F
:1011F0006D6F72790042656400426564004E6F7ADB
:101200007A6C65004E6F7A7A6C650046616E207369
:10121000706565640046616E207370656564005496
:10122000656D70657261747572650024F4D4305018
:10123000C38E20C2A24017828B7011127A910D8149
:101240006CD90AA861E108C7586607615143061EB8
:101250004B5D05C145A7041A411104093D9803716E
:101260003931034036DB0265339102D430540280B9
:101270002E1D02632CEE01752AC501B028A00110B5
:101280002781018F2564012B244B01E0223401AC1E
:10129000211F018D200D01801FFC00841EED009791
:1012A0001DDF00B81CD200E61BC600201BBC00647A
:1012B0001AB200B219A8000A19A0006A189900D140
:1012C00017910040178B00B516840031167E00B3CD
:1012D0001579003A157300C7146F0058146A00EEB0
:1012E0001366008813630025135E00C7125B006C51
:1012F00012570015125400C111510070114F0021F6
:10130000114B00D61049008D1047004610440002D2
:10131000104200C00F4000800F3E00420F3C00060C
:101320000F3B00CB0E3800930E37005C0E350027C4
:101330000E3400F30D3200C10D3100900D3000600D
:101340000D2E00320D2D00050D2C00D90C2B00AEFA
:101350000C2900850C29005C0C2700350C27000E99
:101360000C2600E80B2400C40B2400A00B23007DF6
:101370000B23005A0B2100390B2100180B2000F819
:101380000A1F00D90A1E00BB0A1E009D0A1D00800C
:101390000A1D00630A1C00470A1B002C0A1B0011CF
:1013A0000A1A00F7091A00DD091900C4091900AB6F
:1013B000091900920917007B091800630917004CEE
:1013C00009160036091600200916000A091500F54D
:1013D000081500E0081400CC081400B8081400A494
:1013E000081400900813007D0812006B08130058C1
:1013F00008120046081200340811002308110012D8
:1014000008110001081100F0071000E0071000D0DB
:10141000071000C0071000B0070F00A107100091CF
:10142000070E0083070F0074070F0065070E0057B3
:10143000070E0049070E003B070D002E070E002087
:10144000070D0013070D0006070D00F9060C00ED4F
:10145000060D00E0060C00D4060C00C8060C00BC0B
:10146000060C00B0060C00A4060B0099060C008DBB
:10147000060B0082060B0077060B006C060B006162
:10148000060A0057060B004C060A0042060A0038FE
:10149000060A002E060A0024060A001A060A001090
:1014A00006090007060A00FD050900F4050900EB1E
:1014B000050900E2050900D9050900D0050900C7A2
:1014C000050900BE050900B5050800AD050800A521
:1014D0000509009C050800940508008C0508008497
:1014E0000508007C050800740508006C0507006508
:1014F0000508005D050700560508004E0507004772
:101500000507004005080038050700310507002AD7
:10151000050700230507001C050600160507000F38
:101520000507000805060002050700FB040600F594
:10153000040700EE040600E8040600E2040700DBEE
:10154000040600D5040600CF040600C9040600C343
:10155000040600BD040600B7040600B1040500AC93
:10156000040600A6040600A00405009B04060095DE
:10157000040500900406008A040500850405008027
:101580000406007A04050075040500700405006B6C
:1015900004050066040500610405005C04050057AD
:1015A000040500520405004D0405004804050043ED
:1015B0000405003E0404003A04050035040500302B
:1015C0000404002C04050027040400230405001E65
:1015D0000404001A04040016040500110404000D9C
:1015E000040400090405000404040000040400FCD1
:1015F000030400F8030400F4030400F0030400EC07
:10160000030400E8030400E4030400E0030400DC36
:10161000030400D8030400D4030400D0030400CC66
:10162000030400C8030300C503030024F404D92005
:101630001BC40C5C0E9804C4095F0265077101F4B9
:1016400005F900FB04B30048048700C10369005892
:1016500003550003034500BE023A008402310053E3
:10166000022A002902250004022000E4011C00C80F
:10167000011900AF011700980114008401130071D3
:101680000110006101100051010E0043010D0036F0
:10169000010B002B010B0020010B00150109000CB0
:1016A00001090003010800FB000800F3000800EB3B
:1016B000000700E4000600DE000600D8000600D2A5
:1016C000000600CC000500C7000500C2000500BDF3
:1016D000000400B9000400B5000400B1000400AD2E
:1016E000000400A9000400A5000300A20003009F5D
:1016F0000004009B00030098000300950002009383
:10170000000300900003008D0002008B000300889E
:101710000002008600020084000300810002007FB6
:101720000002007D0002007B0002007900020077C9
:1017300000010076000200740002007200010071D6
:101740000002006F0002006D0001006C0002006AE0
:1017500000010069000200670001006600010065E9
:1017600000010064000200620001006100010060ED
:101770000001005F0002005D0001005C0001005BF1
:101780000001005A000100590001005800010057F3
:1017900000010056000100550001005400010053F3
:1017A00000000053000100520001005100010050F0
:1017B0000001004F0001004E0000004E0001004DEE
:1017C0000001004C0001004B0000004B0001004AEA
:1017D00000010049000100480000004800010047E6
:1017E00000010046000000460001004500000045E1
:1017F00000010044000100430000004300010042DA
:1018000000000042000100410000004100010040D2
:101810000001003F0000003F0001003E0000003ECC
:101820000001003D0000003D0001003C0000003CC4
:101830000000003C0001003B0000003B0001003ABA
:101840000000003A000100390000003900010038B2
:1018500000000038000000380001003700000037A9
:10186000000100360000003600000036000100359F
:101870000000003500000035000100340000003495
:10188000000000340001003300000033000000338A
:10189000000100320000003200000032000100317F
:1018A0000000003100000031000100300000003075
:1018B000000000300001002F0000002F0000002F6A
:1018C0000000002F0001002E0000002E0000002E5E
:1018D0000001002D0000002D0000002D0000002D53
:1018E0000001002C0000002C0000002C0000002C47
:1018F0000001002B0000002B0000002B0000002B3B
:101900000001002A0000002A0000002A0000002A2E
:101910000001002900000029000000290000002922
:101920000000002900010028000000280000002815
:101930000000002800000028000100270000002708
:1019400000000027000000270000002700010026FB
:1019500000000026000000260000002600000026EF
:1019600000010025000000250000002500000025E2
:1019700000000025000000250001002400000024D4
:1019800000000024000000240000002400010023C7
:1019900000000023000000230000002300000023BB
:1019A00000000023000000230001002200000022AC
:1019B000000000220000002200000022000000229F
:1019C0000001002100000021000000210000002192
:1019D0000000002100000021000000210001002083
:1019E0000000002000000020000000200000002077
:1019F0000000002000000020000000200001001F67
:101A00000000001F0000001F0000001F0000001F5A
:101A10000000001F0000001F0001001E0000001E4B
:101A20000000001E0000001E000000507265686586
:101A300061742041425320426564005072656865BC
:101A400061742041425320310050726570617265AB
:101A5000004D33303020533639382050323030008A
:101A60004D33303020533635392050323030004D30
:101A70006F7665206178697300436F6F6C646F7770
:101A80006E00507265686561742041425300507267
:101A9000656865617420504C410053657420686F1F
:101AA0006D65206F66667365747300473238004158
:101AB00075746F20686F6D65004D3834004469732C
:101AC00061626C65207374657070657273004D613E
:101AD000696E00580059005A004578747275646543
:101AE00072004578747275646572004D6F7665207A
:101AF0005A004D6F76652059004D6F76652058006D
:101B00004D6F76652061786973004D6F7665203082
:101B10002E316D6D004D6F766520316D6D004D6F0E
:101B200076652031306D6D005072657061726500B0
:101B30004D383420582059205A2045004D3231006C
:101B4000496E69742E2053442063617264004E6FA5
:101B50002053442063617264004D32310043686158
:101B60006E67652053442063617264005072696E31
:101B7000742066726F6D2053440053746F70207030
:101B800072696E7400526573756D65207072696E4E
:101B900074005061757365207072696E7400436FD4
:101BA0006E74726F6C00507265706172650054756E
:101BB0006E6500496E666F2073637265656E0046E0
:101BC0006C6F77203000466C6F77203000466C6F6A
:101BD0007700466C6F770046616E207370656564B0
:101BE0000046616E20737065656400426564004262
:101BF0006564004E6F7A7A6C65004E6F7A7A6C6518
:101C0000005370656564005370656564004D6169DB
:101C10006E005072656865617420504C41204265C9
:101C200064005072656865617420504C4120310039
:101C300050726570617265006F6B004B494C4C458A
:101C4000442E20005072696E7465722068616C7455
:101C500065642E206B696C6C28292063616C6C654F
:101C600064210053544F505045442E200050726957
:101C70006E7465722073746F70706564206475652E
:101C800020746F206572726F72732E2046697820FF
:101C9000746865206572726F7220616E642075735E
:101CA00065204D39393920746F2072657374617203
:101CB000742E202854656D7065726174757265208C
:101CC00069732072657365742E205365742069747E
:101CD0002061667465722072657374617274696ED6
:101CE00067290000007F4300007F4300009E4300FF
:101CF0000090C10000B8C100000000000090C100C9
:101D000000B8C1000000000000A0400000A040009A
:101D10000000400080884300008B4300009E43FF8A
:101D2000FFFF2200656E717565696E6720220046AF
:101D3000696C2E204469612E20310046696C2E208A
:101D40004469612E2031004F6666004F6E20004FBF
:101D50006666004F6E20004520696E206D6D330071
:101D6000436F6E74726F6C004D3234004D3233200D
:101D700025730043616E6E6F7420656E746572200A
:101D80007375626469723A2000052E2E0004526554
:101D90006672657368004D61696E00526573656EA9
:101DA000643A20004E414E494E495459494E46CD61
:101DB000CCCC3D0AD7233C17B7D13877CC2B329502
:101DC00095E6241FB14F0A000020410000C84200E0
:101DD000401C4620BCBE4CCA1B0E5AAEC59D7400AA
:101DE000BBD276D311241FBECFEFD0E4DEBFCDBF70
:101DF00014E0A0E0B1E0E6E5F1EC01E00BBF02C0C9
:101E000007900D92A435B107D9F721E1A4E5B4E01C
:101E100001C01D92AB3EB207E1F71EE0C1EFDEE06C
:101E200004C02197FE010E94DED3C03FD107C9F74D
:101E30000E94F8CD0C949EE00C9400002F923F92EB
:101E40004F925F926F927F928F929F92AF92BF92CA
:101E5000CF92DF92EF92FF920F931F93CF93DF9376
:101E6000CDB7DEB7C257D1400FB6F894DEBF0FBE74
:101E7000CDBF87E40E945547F82E882311F40C94B7
:101E8000BB240E947B470E945CD56C31710509F42C
:101E90008BC19CF46230710509F428C124F477FFEA
:101EA0003DC00C94B0406330710509F42BC164301F
:101EB000710509F433C10C94B0406A35710511F411
:101EC0000C942824FCF46D31710509F4A6C46E311C
:101ED000710511F00C94B0400E9430970E944D455E
:101EE00080E090E0A0EFB2E480938D0190938E01AA
:101EF000A0938F01B09390010E944146E9E3F6E080
:101F00000C94CC236B35710511F40C942C246C3596
:101F1000710511F40C9431240C94B04080911E068C
:101F200081110C94B0400E94DBBE8FEA91E10E94C7
:101F300071BA0E9436A860937C0B70937D0B8093DE
:101F40007E0B90937F0B8090AF119090B011A0907A
:101F5000B111B090B211CF5DDE4F88829982AA8212
:101F6000BB82C152D140A501940160915A06709183
:101F70005B0680915C0690915D060E942CDD40908E
:101F8000B3115090B4116090B5117090B611E090FB
:101F9000B711F090B8110091B9111091BA11CB5D41
:101FA000DE4FE882F9820A831B83C552D14081113A
:101FB0007EC0A301920160915E0670915F068091E0
:101FC0006006909161060E942CDD811170C020E0B6
:101FD00030E040E752E460918D0170918E01809174
:101FE0008F01909190010E94EAD44B015C018CE634
:101FF00091E19F938F93ABEBCA2EA1E1DA2ECB5DDB
:10200000DE4FE880F9800A811B81C552D140A301CF
:102010009201CF5DDE4F688179818A819B81C152B7
:10202000D1400E94EB540F900F908091AF1190918E
:10203000B011A091B111B091B21180935A06909352
:102040005B06A0935C06B0935D068091B3119091FE
:10205000B411A091B511B091B61180935E06909322
:102060005F06A0936006B09361068091B7119091CE
:10207000B811A091B911B091BA11809362069093F2
:102080006306A0936406B09365068091BB1190919E
:10209000BC11A091BD11B091BE11809366069093C2
:1020A0006706A0936806B09369060C94B0406091EF
:1020B000730170917401072E000C880B990B0E941C
:1020C00033DD20918D0130918E0140918F0150912F
:1020D00090010E941DD820E030E040E752E40E94C9
:1020E000EAD420E030E048EC52E47DCF80911E0637
:1020F00081110C94B0400E9460BF81E00E9425BB1A
:102100000C94B04080911E0681110C94B0400E9446
:1021100060BF80E00E9425BB0C94B04087EC96E045
:102120000E9431AF80E50E945547882339F00E9414
:102130007B470E9463D56B017C0103C0C12CD12C6D
:10214000760183E50E945547882361F00E947B4712
:1021500020E030E04AE754E40E941DD80E9463D595
:102160006B017C010E9430970E9436A8C60ED71ED4
:10217000E81EF91E0E9436A860937C0B70937D0BBD
:1021800080937E0B90937F0B0E9436A86C157D0583
:102190008E059F0510F00C94B0400E94B2940E94EE
:1021A0004D740E9454AFF0CF80E090E0A0E8BFE310
:1021B0008093160190931701A0931801B093190111
:1021C00010921A0110921B0110921C0110921D0115
:1021D00010921E0110921F011092200110922101F5
:1021E00010922201109223011092240110922501D5
:1021F0008093260190932701A0932801B093290191
:1022000010922A0110922B0110922C0110922D0194
:1022100010922E0110922F01109230011092310174
:102220001092320110923301109234011092350154
:102230008093360190933701A0933801B093390110
:1022400080918D0190918E01A0918F01B0919001AC
:1022500080935C0490935D04A0935E04B0935F044C
:10226000809173019091740190935B0480935A0460
:1022700084E690E090937401809373010E9436A8E5
:1022800060937C0B70937D0B80937E0B90937F0B00
:1022900011E01093130180915A0690915B06A09172
:1022A0005C06B0915D068093AF119093B011A0933E
:1022B000B111B093B21180915E0690915F06A0912A
:1022C0006006B09161068093B3119093B411A0930E
:1022D000B511B093B6118091620690916306A091FA
:1022E0006406B09165068093B7119093B811A093DE
:1022F000B911B093BA118091660690916706A091CA
:102300006806B09169068093BB119093BC11A093AD
:10231000BD11B093BE1110928D0110928E011092DA
:102320008F011092900188E50E945547882311F093
:1023300080E009C089E50E9455478111F9CF8AE5FF
:102340000E94554781278093020181110C94B3406C
:1023500088E50E94554781110C94B3408091020199
:1023600081110C94B94089E50E94554781110C9464
:10237000B94088E50E9455478823D1F00E947047F4
:10238000672B682B692BA1F00E947B47209160117D
:102390003091611140916211509163110E94F0D30C
:1023A00060935A0670935B0680935C0690935D067B
:1023B00089E50E9455478823D1F00E947047672B1A
:1023C000682B692BA1F00E947B472091641130910A
:1023D000651140916611509167110E94F0D360938E
:1023E0005E0670935F06809360069093610680910D
:1023F0000201882309F4A4C080E090E0AEEFB2E4CB
:102400008093AF119093B011A093B111B093B2111A
:102410008093B3119093B411A093B511B093B611FA
:10242000E1E2FDE1E49106EFE002F0011124BF01D9
:10243000FF0F880B990B0E9433DD6093B7117093E7
:10244000B8118093B9119093BA1180E090E0A8EC94
:10245000B2E480938D0190938E01A0938F01B0938D
:102460009001109262061092630610926406109218
:10247000650620915E0630915F064091600650919E
:10248000610660915A0670915B0680915C0690919E
:102490005D06E12CF12C87010E94DB7580908D0197
:1024A00090908E01A0908F01B0909001E090B711B4
:1024B000F090B8110091B9111091BA112091B31197
:1024C0003091B4114091B5115091B6116091AF1196
:1024D0007091B0118091B1119091B211ECE6F1E1DF
:1024E000FF93EF93FBEBCF2EF1E1DF2E0E94EB5435
:1024F0000E9430978091AF119091B011A091B111CD
:10250000B091B21180935A0690935B06A0935C063B
:10251000B0935D068091B3119091B411A091B51163
:10252000B091B61180935E0690935F06A09360060B
:10253000B093610682E090E00E9485B70F900F9003
:102540008AE50E945547882309F4F7C08091730BF0
:10255000882309F4AAC08091740B882309F4A5C0CC
:1025600080905A0690905B06A0905C06B0905D0645
:1025700020E030E040E052E4C501B4010E94EFD316
:102580006B017C0120E030E040E951EC0E9450D624
:1025900087FDAEC020E030E04FE753E4C701B6014D
:1025A0000E942CDD18160CF4A3C040905E065090DB
:1025B0005F06609060067090610620E030E040E2C7
:1025C00051E4C301B2010E94EFD36B017C0120E012
:1025D00030E048EB51EC0E9450D687FD89C020E0E6
:1025E00030E04FE753E4C701B6010E942CDD181616
:1025F0000CF47EC01092620610926306109264067C
:1026000010926506E12CF12C8701A3019201C5010E
:10261000B4010E94DB75E1E2FDE1E49116EFE10215
:10262000F0011124BF01FF0F880B990B0E9433DDCD
:102630007B018C016093B7117093B8118093B9112D
:102640009093BA118090621090906310A0906410E3
:10265000B090651080928D0190928E01A0928F01B2
:10266000B09290012091B3113091B4114091B51105
:102670005091B6116091AF117091B0118091B1116C
:102680009091B211ECE6F1E1FF93EF93EBEBCE2EDC
:10269000E1E1DE2E0E94EB540E94309782E090E050
:1026A0000E9485B70F900F9048C085EB96E00E947E
:1026B00031AFEDE1FFE08491882341F09091C000BB
:1026C00095FFFCCF8093C6003196F5CFE3EAF6E0A4
:1026D0008491882341F09091C00095FFFCCF8093B6
:1026E000C6003196F5CF8091C00085FFFCCF22C097
:1026F00082E996E00E9431AFEDE1FFE0849188230A
:1027000041F09091C00095FFFCCF8093C6003196B8
:10271000F5CFE1E8F6E08491882341F09091C00084
:1027200095FFFCCF8093C6003196F5CF8091C00015
:1027300085FFFCCF8AE08093C6008AE50E9455475A
:102740008823D1F00E947047672B682B692BA1F07A
:102750000E947B47209168113091691140916A1164
:1027600050916B110E94F0D36093620670936306E0
:1027700080936406909365068091020181110C9408
:10278000BF408AE50E94554781110C94BF40E090FC
:102790006206F09063060091640610916506209130
:1027A0005E0630915F06409160065091610660912F
:1027B0005A0670915B0680915C0690915D060E94BE
:1027C000DB751092130180915C0490915D04A091DF
:1027D0005E04B0915F0480938D0190938E01A0936D
:1027E0008F01B093900180915A0490915B04909373
:1027F0007401809373010E9436A860937C0B7093E0
:102800007D0B80937E0B90937F0B10929A04109215
:102810009904109298040C94B0408091730B882313
:1028200021F08091740B811127C08FE696E00E9401
:1028300031AFEDE1FFE08491882341F09091C00039
:1028400095FFFCCF8093C6003196F5CFEDE5F6E01D
:102850008491882341F09091C00095FFFCCF809334
:10286000C6003196F5CF8091C00085FFFCCF8AE08D
:102870008093C6000C94B0400E94309780E090E0B6
:10288000A0E8BFE38093160190931701A09318016D
:10289000B093190110921A0110921B0110921C01A1
:1028A00010921D0110921E0110921F011092200122
:1028B0001092210110922201109223011092240102
:1028C000109225018093260190932701A09328015F
:1028D000B093290110922A0110922B0110922C0121
:1028E00010922D0110922E0110922F0110923001A2
:1028F0001092310110923201109233011092340182
:10290000109235018093360190933701A0933801DE
:10291000B0933901CE018F5E9E4F0E94EA9ECF5E3A
:10292000DE4F688179818A819B81C151D14060935A
:102930005A0670935B0680935C0690935D06CB5EAF
:10294000DE4F288139814A815B81C551D140209376
:102950005E0630935F064093600650936106C75E43
:10296000DE4FE880F9800A811B81C951D140E09295
:102970006206F092630600936406109365060E9457
:10298000DB750E944D4580E090E0A0EFB2E48093BB
:102990008D0190938E01A0938F01B0939001612CD3
:1029A000712C212C312C24E130E0C55CDE4F3983C1
:1029B0002883CB53D1404AE550E0C75DDE4F5983B1
:1029C0004883C952D1408AE090E0CF5DDE4F9983C1
:1029D0008883C152D140C35DDE4F1882CD52D140B1
:1029E00088248394912C8C0E9D1E860C971CCB5DA5
:1029F000DE4F99828882C552D140CF5CDE4F39824A
:102A00002882C153D140412C512CC55CDE4FA88097
:102A1000B980CB53D1400B2C000CCC08DD08CF5B28
:102A2000DE4FA882B982CA82DB82C154D140CF5C1A
:102A3000DE4FC880D980C153D140CD2889F020E035
:102A400030E040E050E4609162067091630680914E
:102A50006406909165060E94F0D36B017C0106C06C
:102A6000C12CD12CB0E2EB2EB1E4FB2ECF5BDE4FBC
:102A7000688179818A819B81C154D1400E9433DD74
:102A8000CD5CDE4F688379838A839B83C353D140B7
:102A9000CF5DDE4F88809980C152D140B401990C3E
:102AA000880B990B0E9433DD4B015C0120915E067F
:102AB00030915F06409160065091610660915A0620
:102AC00070915B0680915C0690915D0687017601AE
:102AD0000E947945C0906206D0906306E09064063B
:102AE000F090650620E030E040E251E4CD5CDE4F3E
:102AF000688179818A819B81C353D1400E94F0D340
:102B0000C95CDE4F688379838A839B83C753D14036
:102B100020E030E040E052E4C501B4010E94F0D36F
:102B200087017601C95CDE4F288139814A815B814A
:102B3000C753D1400E9479450E944146C090620629
:102B4000D0906306E0906406F0906506E7E2F1E05D
:102B50008491882341F09091C00095FFFCCF809331
:102B6000C6003196F5CFE2E2F1E08491882341F08E
:102B70009091C00095FFFCCF8093C6003196F5CFB1
:102B800042E0C501B4010E94DA78EDE1F1E0849100
:102B9000882341F09091C00095FFFCCF8093C60040
:102BA0003196F5CF42E0CD5CDE4F688179818A8134
:102BB0009B81C353D1400E94DA78E8E1F1E084912F
:102BC000882341F09091C00095FFFCCF8093C60010
:102BD0003196F5CF42E0C701B6010E94DA78E6E10E
:102BE000F1E08491882341F09091C00095FFFCCFE3
:102BF0008093C6003196F5CFF201E60DF71D09EC82
:102C000010E00C0F1D1FE00FF11FC082D182E28285
:102C1000F382CB5DDE4FA881B981C552D1408D9240
:102C20009D92AD92BD92CB5DDE4FB983A883C55214
:102C3000D140CD5CDE4F88809980AA80BB80C35391
:102C4000D14090968D929D92AD92BC929397FD014A
:102C5000EC5BFF4F812C912CA0E8AA2EAFE3BA2E9B
:102C600080829182A282B382CF5CDE4F088119817B
:102C7000C153D1400F5F1F4FCF5CDE4F19830883D4
:102C8000C153D140CF5DDE4F88809980C152D14081
:102C9000C75DDE4FA880B980C952D1408A0C9B1C09
:102CA000CF5DDE4F99828882C152D14004E0400E50
:102CB000511C1CE04116510409F0B9CE23E0220E4C
:102CC000311CC55CDE4F48815981CB53D1404B5AF2
:102CD0005F4FC55CDE4F59834883CB53D14059E0E9
:102CE00025163104B9F1C35DDE4F8880CD52D14045
:102CF000811017C006EA1FEFC75DDE4F19830883F6
:102D0000C952D1402EEB30E0CF5DDE4F39832883AE
:102D1000C152D14031E0C35DDE4F3883CD52D14046
:102D200015C04AE550E0C75DDE4F59834883C9525C
:102D3000D1408AE090E0CF5DDE4F99838883C15215
:102D4000D140C35DDE4F1882CD52D1409CE0690E68
:102D5000711C46CE0E9428458CE690E00E94DBD88C
:102D6000CF5DDE4F99838883C152D14020E030E0AF
:102D700080E090E0AC01420F531FCF5DDE4FE88151
:102D8000F981C152D140E40FF51FA1E0B0E0AC0FD2
:102D9000BD1FA40FB51F4D915D916D917C91408336
:102DA00051836283738304968432910519F72C5DF5
:102DB0003F4F2C363105E1F6CF5DDE4FA881B9815A
:102DC000C152D140CD90DD90ED90FC9020E030E0FC
:102DD000A901C701B6010E9450D687FF04C0F7FAC7
:102DE000F094F7F8F094CF5DDE4F88809980C1525F
:102DF000D140CF5CDE4F99828882C153D1400CE62E
:102E0000800E911CCF5DDE4FA880B980C152D140A9
:102E100000E010E0F501E00FF11F4080518062807A
:102E2000738020E030E0A901C301B2010E9450D6B6
:102E3000A301920187FD5058C701B6010E942CDD05
:102E400087FF0FC020E030E0A901C301B2010E945A
:102E500050D67301620187FF04C0F7FAF094F7F8C7
:102E6000F0940C5F1F4F04321105A1F614E2A10E7D
:102E7000B11CA814B90461F6A701960160E070E0E6
:102E800080E895E20E94EAD4C759DE4F68837983CF
:102E90008A839B83C956D1408CE090E00E94DBD8A6
:102EA000C35DDE4F99838883CD52D14086E090E0A8
:102EB0000E94DBD8CB5DDE4F99838883C552D14019
:102EC0008CE090E00E94DBD8C55CDE4F998388835C
:102ED000CB53D14084E290E00E94DBD8CD5CDE4F42
:102EE00099838883C353D140CB5DDE4FA881B981DC
:102EF000C552D14011961C921E9213961C921E929E
:102F0000129715961C921E9214978CE090E00E94E6
:102F1000DBD8CB5ADE4F99838883C555D140CB5D32
:102F2000DE4F88809980C552D140CF5ADE4F9982BA
:102F30008882C155D140CF5DDE4FA880B980C15293
:102F4000D140640101E010E0EE24E394F12CF9E0BB
:102F50009F2ED6018D919C91119797FF07C08827CE
:102F600099278E199F098D939C9335C0F601F182A4
:102F7000E082892B81F1E016F106B9F09801215029
:102F80003109929EC001939E900D1124880F991FC4
:102F9000880F991FB501CF5DDE4F28813981C1525D
:102FA000D140820F931F0E942FC7F801E150F048D3
:102FB000EE0FFF1FCB5DDE4F48815981C552D140D6
:102FC000E40FF51F80819181D6018D939C93F1824E
:102FD000E0820F5F1F4FBFEFEB1AFB0AE2E0CE0E5D
:102FE000D11CF4E0AF0EB11C24E0E216F10409F0AC
:102FF000B0CFCF59DE4F19830883C156D140CB5D86
:10300000DE4FA880B980C552D14036E0A30EB11C76
:10301000CF5DDE4F88809980C152D14048E4840E54
:10302000911C83E090E0C75DDE4F99838883C9528D
:10303000D14043E0C42ED12C59E0752ED501FE902D
:10304000EE905D01F7FE4BC0F194E194F108ED9232
:10305000FC92C75DDE4FE881F981C952D140CE169E
:10306000DF0681F19F0121503109729EC001739EDC
:10307000900D1124880F991F880F991FB401CF5DFF
:10308000DE4F28813981C152D140820F931F0E94A7
:103090002FC7C75DDE4FE881F981C952D140E150A9
:1030A000F048EE0FFF1FCB5DDE4F48815981C552BE
:1030B000D140E40FF51F80819181F182E082D5013A
:1030C0008D939C93C75DDE4FE881F981C952D14051
:1030D0003197C75DDE4FF983E883C952D140F1E0F3
:1030E000CF1AD10824E2821A9108C114D10409F040
:1030F000A5CF84E2809F3001819F700C11242801AC
:10310000440C551C440C551CC55CDE4F288039808E
:10311000CB53D140240C351C6801E12CF12C60E02C
:1031200070E04B0194E2890E911C5701A4E0AA0EB5
:10313000B11CC75DDE4FE881F981C952D140EC1561
:10314000FD0504F164527109660D771DCF5DDE4FF8
:1031500048815981C152D140640F751F89E090E0C8
:103160000E9476C654E0E51AF108F101EE0DFF1D4C
:1031700060837183828393838FEFC81AD80A7501A5
:10318000B401CFCF80E090E09C012C5F3F4FC75D42
:10319000DE4FA880B980C952D140A016B106ECF02C
:1031A000F901E40DF51D3897CB5ADE4F88809980E0
:1031B000C555D140E80DF91D0497D101A80FB91FDD
:1031C0008D919D910D90BC91A02D80839183A283C0
:1031D000B3830F5F1F4FC901D7CFC55CDE4FC880D7
:1031E000D980CB53D140C15ADE4FD982C882CF5546
:1031F000D140CB5ADE4FE880F980C555D140C35A43
:10320000DE4FF982E882CD55D140CB5DDE4F88801C
:103210009980C552D140C35BDE4F99828882CD54DC
:10322000D140CF5DDE4FA880B980C152D140C75A8E
:10323000DE4FB982A882C955D140C95CDE4FD98220
:10324000C882C753D140350144244394512CCF59EF
:10325000DE4FC880D980C156D1404C145D040CF4B7
:10326000D7C0C75DDE4FE880F980C952D1404E1407
:103270005F040CF0CDC082017201B12CA12C912C05
:10328000812CC12CD12CC95CDE4F28803980C753DA
:10329000D14024E0220E311CF6013497E20DF31DDB
:1032A0003081CF5BDE4F3883C154D1404181C35C54
:1032B000DE4F4883CD53D1405281CB5BDE4F5883E4
:1032C000C554D1408381C75BDE4F8883C954D14048
:1032D000232F342F452F582F6B2D7A2D892D982D84
:1032E0000E942CDD87FF15C0CF5BDE4FB880C15434
:1032F000D140C35CDE4FA880CD53D140CB5BDE4FC5
:103300009880C554D140C75BDE4F8880C954D140F6
:1033100087019FEFE91AF90AA4E0CA0ED11CC75D24
:10332000DE4FE881F981C952D140EE15FF050CF05E
:10333000B3CF0415150509F46BC0C8010197F9E076
:10334000F89FB001F99F700D1124660F771F660F6B
:10335000771FCF5DDE4F88809980C152D140680DC4
:10336000791DC75ADE4F88819981C955D1400E9485
:103370002FC7C8018150904C880F991F880F991F43
:10338000C95CDE4FA881B981C753D1404D915D9191
:103390006D917C91C55CDE4FE881F981CB53D140C2
:1033A000E80FF91F4083518362837383C35ADE4F52
:1033B000E881F981CD55D14040815181628173818D
:1033C000CB5ADE4FE881F981C555D140E80FF91F8E
:1033D0004083518362837383F801E150F048EE0F1C
:1033E000FF1FCB5DDE4F88809980C552D140E80D2C
:1033F000F91D80819181C35BDE4FA881B981CD54D5
:10340000D1402D913C911197318320838D939C93D2
:10341000C95CDE4FE881F981C753D1401192119206
:1034200011921192C95CDE4FF983E883C753D140F2
:10343000EAE08E2E912C84189508CF5BDE4F99829E
:103440008882C154D140B301C4010E9476C6CB5BCF
:10345000DE4F688379838A839B83C554D14020E003
:1034600030E0A9010E942CDD882309F460C2D30159
:10347000CD90DD90ED90FC9020E030E0A901C701F7
:10348000B6010E942CDD882321F120E030E0A90163
:10349000C701B6010E942CDD87FD05C020E030E0A9
:1034A00040E85FE304C020E030E040E85FEBCB5B46
:1034B000DE4F688179818A819B81C554D1400E9409
:1034C0001DD8CB5BDE4F688379838A839B83C55489
:1034D000D140CB5BDE4F288139814A815B81C55465
:1034E000D14060E070E080E89FE30E94EAD44B01A5
:1034F0005C01CF5BDE4F88819981C154D14065E08A
:1035000070E00E94ABD36C011C01730100E010E07D
:103510000C151D0591F0A5019401F70160817181E1
:10352000828193810E941DD8D7016D937D938D93E5
:103530009D937D010F5F1F4FEBCF000F111F000FF9
:10354000111F060D171DA5019401F80160817181FD
:10355000828193810E941DD8D8016D937D938D93B4
:103560009C931397A501940114966D917D918D9173
:103570009C9117970E941DD8F801648375838683F8
:103580009783A501940160857185828593850E944A
:103590001DD8D80118966D937D938D939C931B979E
:1035A000A50194011C966D917D918D919C911F9721
:1035B0000E941DD8F8016487758786879787A501C3
:1035C000940160897189828993890E941DD8D801EC
:1035D00050966D937D938D939C935397B5E02B0EEE
:1035E000311C0C5E1F4FCF5BDE4FC880D980C154A9
:1035F000D1402C143D040CF4A6CF20E030E040E88C
:103600005FE3D3016D917D918D919C910E94F0D3E8
:10361000F301608371838283938382010F5F1F4F65
:10362000C75BDE4F19830883C954D140C35ADE4FAC
:1036300028813981CD55D1402C5F3F4FC95ADE4F8B
:1036400039832883C755D140130138E2230E311C3A
:10365000C95CDE4F88809980C753D140C35CDE4F80
:1036600099828882CD53D14069E0A62EB12CA4184E
:10367000B508CF58DE4FB982A882C157D140C75B89
:10368000DE4F48815981C954D1404430510509F475
:1036900030C1810104501109A801B301CF5BDE4F95
:1036A00088819981C154D1400E9492C59058D3011C
:1036B0002D913D914D915C910E94EAD46B017C016A
:1036C00020E030E0A9010E942CDD882359F093010D
:1036D000B701A601CF5BDE4F88819981C154D140EB
:1036E0000E94A99DCF59DE4F88809980C156D14054
:1036F000C75BDE4FA880B980C954D140A814B90473
:103700000CF4CAC0C75DDE4FC880D980C952D14011
:10371000CA14DB040CF4C0C0C35CDE4FA881B981BD
:10372000CD53D1408D909D90AD90BC9020E030E085
:10373000A901C501B4010E942CDD882309F4ACC0A5
:10374000F1013497C080D180E280F38020E030E046
:10375000A901C701B6010E9450D687FF04C0F7FA3D
:10376000F094F7F8F094A5019401C701B6010E9406
:10377000EAD49B01AC010E941DD89B01AC0160E022
:1037800070E080E89FE30E94EFD36B017C0120E0B2
:1037900030E0A9010E9450D618161CF0C12CD12C83
:1037A0007601C95ADE4FE881F981C755D1402081A1
:1037B000318142815381C501B4010E94EAD4CB59C1
:1037C000DE4F688379838A839B83C556D1402DEC75
:1037D0003CEC4CE45DE3C701B6010E941DD8C3591F
:1037E000DE4F688379838A839B83CD56D140CB5942
:1037F000DE4F288139814A815B81C556D140CA019B
:10380000B9010E941DD89B01AC01C359DE4F6881EC
:1038100079818A819B81CD56D1400E941DD820E0BC
:1038200030E040E85FE30E94F0D320E030E040E881
:103830005FE30E942CDD882389F0C701B6010E9456
:1038400045D79B01AC01C501B4010E941DD8C35CE2
:10385000DE4FA881B981CD53D14019C0B101CF58F5
:10386000DE4F88819981C157D1400E9476C6C35CE2
:10387000DE4FE881F981CD53D1406083718382832B
:103880009383C95ADE4FA881B981C755D1406D9342
:103890007D938D939C931397C75BDE4FE881F981ED
:1038A000C954D1403196C75BDE4FF983E883C954D0
:1038B000D140C35CDE4F08811981CD53D1400C5FEC
:1038C0001F4FC35CDE4F19830883CD53D140C95AC3
:1038D000DE4F28813981C755D1402C5F3F4FC95AEF
:1038E000DE4F39832883C755D14034E2230E311C83
:1038F000C6CEF30180819181A281B381C95CDE4F84
:10390000E881F981C753D140349780839183A283A2
:10391000B383CB5BDE4F88819981AA81BB81C5547B
:10392000D140B058F30180839183A283B383FFEF2A
:103930004F1A5F0A08E2600E711CC75ADE4F2881D9
:103940003981C955D1402C5D3F4FC75ADE4F39836D
:103950002883C955D140C35ADE4F48815981CD557E
:10396000D1404C5F5F4FC35ADE4F59834883CD55DA
:10397000D140C35BDE4F88819981CD54D1400296FE
:10398000C35BDE4F99838883CD54D14094E04916C0
:10399000510409F05CCCCF5DDE4FA881B981C152E2
:1039A000D140CD90DD90ED90FC9046015701B7FAE3
:1039B000B094B7F8B09420E030E0A901C701B60197
:1039C0000E9450D687FD05C07C2D6D2D9E2D8F2D1C
:1039D00004C0782D692D9A2D8B2D272F362F492F36
:1039E000582FC759DE4F688179818A819B81C956DA
:1039F000D1400E941DD82B013C01CF5DDE4F0881D4
:103A00001981C152D140E12CF12CF80180809180C4
:103A1000A280B38020E030E0A901C501B4010E947A
:103A200050D687FF04C0B7FAB094B7F8B094A3019A
:103A30009201C501B4010E942CDD181694F4FFEF29
:103A4000EF1AFF0A085D1F4F23E0E216F104E9F6C2
:103A5000CB5ADE4F88819981C555D1400E9470D9DB
:103A600030C0E114F10469F5CB5DDE4FA881B98166
:103A7000C552D1408D919C91119791958195910955
:103A800011969C938E9312968D919C91139791957C
:103A90008195910913969C938E93129714968D910C
:103AA0009C91159791958195910915969C938E936C
:103AB00014979701220F331F220F331F80E090E0ED
:103AC0003BC2FE01E753FF4FCD5CDE4F28803980BB
:103AD000C353D140CF018496D1014191519161915D
:103AE00071914D935D936D937D93E817F907A9F755
:103AF000CD5CDE4FC880D980C353D14088248394E5
:103B0000912CC15ADE4FE881F981CF55D1404190C7
:103B1000519061907190C15ADE4FF983E883CF557F
:103B2000D14020E030E0A901C301B2010E942CDDA8
:103B3000882309F44FC0CF5CDE4FA881B981C153FF
:103B4000D1400D911D912D913C911397C75DDE4F92
:103B5000088319832A833B83C952D140FD014082E7
:103B60005182628273823AE0A32EB12CA818B90860
:103B7000A601BD01C5010E9492C59058A301920102
:103B80000E94EAD42B013C0120E030E0A9010E9410
:103B90002CDD882361F08601CF5CDE4F28813981DE
:103BA000C153D140B301A201C5010E94A99DC75DC7
:103BB000DE4F088119812A813B81C952D140CF5CF7
:103BC000DE4FA881B981C153D1400D931D932D9330
:103BD0003C931397BFEF8B1A9B0ACF5CDE4FE881B3
:103BE000F981C153D140B896CF5CDE4FF983E883A9
:103BF000C153D140F4E0CF0ED11CE814F9040CF00D
:103C000080CFC35DDE4FE881F981CD52D14081E0A4
:103C100090E0D1014D915D916D917D911D01419398
:103C20005193619371930196E816F90694F7CD5C70
:103C3000DE4FE881F981C353D14010821182128294
:103C40001382F1E0EF16F104D1F0CD5CDE4FA881D4
:103C5000B981C353D14014961D921D921D921C929E
:103C60001797B3E0EB16F10451F4CD5CDE4FE88119
:103C7000F981C353D14010861186128613866701DD
:103C8000F1E0CF1AD1084701880C991C880C991CC7
:103C9000CF5CDE4F99828882C153D140C35DDE4F35
:103CA000A880B980CD52D140A80CB91CC75DDE4FA9
:103CB000B982A882C952D14088E28E9D40018F9D71
:103CC000900C1124C95CDE4F99828882C753D14081
:103CD00024E22E9DC0012F9D900D1124812C912C4A
:103CE000612C712CAA24A394B12C8C0104521109CB
:103CF000CF5BDE4F19830883C154D140C95CDE4FCE
:103D0000E881F981C753D140E60DF71DB897CF5D23
:103D1000DE4F28813981C152D140E20FF31F20804C
:103D200031804280538020E030E0A901C201B1011E
:103D30000E942CDD81112AC0C95CDE4FC880D98069
:103D4000C753D14038E2C31AD108CF5DDE4F888017
:103D50009980C152D140C80CD91C8AE090E05C0126
:103D6000AE18BF08812C912C22242394312CCF5CD7
:103D7000DE4F08811981C153D14004501109C95C3B
:103D8000DE4F19830883C753D140B7C0A201910108
:103D9000C75DDE4FA881B981C952D1409E918E91F5
:103DA0007E916E91C75DDE4FB983A883C952D14021
:103DB0000E94EAD4C75DDE4FE881F981C952D14043
:103DC0006083718382839383C114D10469F11B01E1
:103DD0002C0157FA509457F850941C141D0424F5E4
:103DE00020E030E0A901C201B1010E942CDD88234E
:103DF000D9F0CF5BDE4F28813981C154D140280DE5
:103E0000391DCF5DDE4F08811981C152D140200F8D
:103E1000311FC35DDE4F08811981CD52D140B201FF
:103E2000A101C6010E94A99D1FEFA11AB10A28E2B3
:103E3000621A710831E0C31AD10844E2841A910869
:103E4000EA14FB040CF05ACF77CFD6010D911D91E7
:103E50002D913C91C75DDE4F088319832A833B83F4
:103E6000C952D140F6014082518262827382C95C9C
:103E7000DE4F08811981C753D140080D191DCD5C53
:103E8000DE4F28813981C353D140020F131FA8018F
:103E9000B601C5010E9492C59058A30192010E94EB
:103EA000EAD42B013C0120E030E0A9010E942CDD86
:103EB000882331F09601B301A201C5010E94A99D9A
:103EC000C75DDE4F88819981AA81BB81C952D140EB
:103ED000F60180839183A283B383FFEF2F1A3F0AF9
:103EE00004E0801A910818E2C11AD1082FEFA21A33
:103EF000B20AE214F3040CF4B7CDCF5CDE4FE881D4
:103F0000F981C153D140E80DF91D3497C55CDE4FEE
:103F100088819981CB53D140E80FF91F40805180AF
:103F20006280738020E030E0A901C301B2010E94E9
:103F30002CDD882391F289CF13E0E116F104A1F082
:103F4000FC01E20FF31FC35DDE4F88809980CD52E4
:103F5000D140E80DF91D10821182128213820FEFF9
:103F6000E01AF00A0496E8CFC35DDE4FA881B9815C
:103F7000CD52D14021E030E0CF5ADE4FE881F981C7
:103F8000C155D1408081918118161906BCF52F5F6B
:103F90003F4FCF5ADE4F08811981C155D1400E5F86
:103FA0001F4FCF5ADE4F19830883C155D140149655
:103FB0002430310509F7CF5DDE4F88819981C152E8
:103FC000D1400E9470D9CB5DDE4F88819981C55266
:103FD000D1400E9470D9C55CDE4F88819981CB5356
:103FE000D1400E9470D9CD5CDE4F88819981C35346
:103FF000D1400E9470D9E7E4F6E04AC091958195DE
:104000009109CF5ADE4FE881F981C155D1409183A2
:1040100080838217930709F4BACF4D915D916D911A
:104020007C911397FC01E150F04CEE0FFF1FEE0F57
:10403000FF1FC35DDE4F88809980CD52D140E80DCF
:10404000F91DC080D180E280F380CD92DD92ED92A7
:10405000FC9213974083518362837383FC01E15088
:10406000F048EE0FFF1FCB5DDE4FA880B980C55230
:10407000D140EA0DFB1D8081918191958195910937
:10408000C6CF9091C00095FFFCCF8093C6003196BB
:1040900084918111F6CFC35DDE4FA881B981CD52E5
:1040A000D1406D917D918D919C9142E00E94DA7892
:1040B000E2E4F6E08491882341F09091C00095FFFE
:1040C000FCCF8093C6003196F5CFC35DDE4FE8810B
:1040D000F981CD52D140648175818681978142E01A
:1040E0000E94DA78EDE3F6E08491882341F0909124
:1040F000C00095FFFCCF8093C6003196F5CFC35D1D
:10410000DE4FA881B981CD52D14018966D917D9135
:104110008D919C911B9742E00E94DA788091C000BB
:1041200085FFFCCF8AE08093C600C35DDE4FE88147
:10413000F981CD52D140C480D580E680F780F7FA6E
:10414000F094F7F8F09480809180A280B3802401ED
:10415000350177FA709477F87094E9EBF2E0819189
:10416000882339F09091C00095FFFCCF8093C60062
:10417000F6CFE7E3F1E08491882341F09091C0000D
:1041800095FFFCCF8093C6003196F5CF42E0C30186
:10419000B2010E94DA78E2E3F1E08491882341F0F1
:1041A0009091C00095FFFCCF8093C6003196F5CF6B
:1041B00042E0C701B6010E94DA78EDE2F1E08491B5
:1041C000882341F09091C00095FFFCCF8093C600FA
:1041D0003196F5CF42E060E070E080E89FE30E9416
:1041E000DA78EBE2F1E08491882341F09091C0000D
:1041F00095FFFCCF8093C6003196F5CF8E010B5F03
:104200001E4FC35EDE4F19830883CD51D140CB5F73
:10421000DE4F488259826A827B82C550D140C75F97
:10422000DE4FC882D982EA82FB82C950D140C12CBC
:10423000D12CE0E8EE2EEFE3FE2EC35FDE4FC88206
:10424000D982EA82FB82CD50D140C8010E9402AAE5
:104250009E0127503F4FC15EDE4F39832883CF51E7
:10426000D140C750DF4FC882D982EA82FB82C95F42
:10427000D040C350DF4F188219821A821B82CD5F53
:10428000D040CF5FDE4F88829982AA82BB82C15024
:10429000D140C9010E9402AACB5FDE4F888099807D
:1042A000AA80BB80C550D140CF5DDE4F8882998205
:1042B000AA82BB82C152D140C75FDE4F488059807D
:1042C0006A807B80C950D140C35FDE4F888099806F
:1042D000AA80BB80CD50D140C750DF4FC880D98065
:1042E000EA80FB80C95FD040CB5DDE4FC882D982B7
:1042F000EA82FB82C552D140C350DF4FE880F9808B
:104300000A811B81CD5FD040C75DDE4FE882F98214
:104310000A831B83C952D140CF5FDE4FC880D9804A
:10432000EA80FB80C150D1401E010DEE200E311CF1
:10433000A7019601C301B2010E941DD8CD5CDE4FDA
:10434000688379838A839B83C353D140C75DDE4FE3
:10435000288139814A815B81C952D140C501B401AC
:104360000E941DD89B01AC01CD5CDE4F6881798134
:104370008A819B81C353D1400E94EFD3D1016D93B9
:104380007D938D939C931397CB5DDE4F288139816C
:104390004A815B81C552D140C501B4010E941DD83C
:1043A0004B015C01A7019601CF5DDE4F68817981E9
:1043B0008A819B81C152D1400E941DD89B01AC01D2
:1043C000C501B4010E94EFD3F10164837583868334
:1043D0009783C75DDE4F288139814A815B81C9524D
:1043E000D140CF5DDE4F688179818A819B81C15246
:1043F000D1400E941DD86B017C01CB5DDE4F28812E
:1044000039814A815B81C552D140C301B2010E940A
:104410001DD89B01AC01C701B6010E94EFD3D101A9
:1044200018966D937D938D939C931B97C1010E9469
:1044300002AAC750DF4F488059806A807B80C95FDD
:10444000D040C350DF4F88809980AA80BB80CD5F69
:10445000D040CF5FDE4FC880D980EA80FB80C1505A
:10446000D140D1010D911D912D913C911397CF5DBC
:10447000DE4F088319832A833B83C152D1401496AF
:104480000D911D912D913C911797CB5DDE4F0883C7
:1044900019832A833B83C552D14018960D911D91F3
:1044A0002D913C911B97C75DDE4F088319832A83AA
:1044B0003B83C952D140CB5FDE4F088119812A81ED
:1044C0003B81C550D140C75FDE4F488159816A8129
:1044D0007B81C950D140C35FDE4F88819981AA8119
:1044E000BB81CD50D140409216015092170160928D
:1044F00018017092190180921A0190921B01A092EA
:104500001C01B0921D01C0921E01D0921F01E092C9
:104510002001F0922101CF5DDE4F88809980AA8032
:10452000BB80C152D1408092220190922301A0927F
:104530002401B0922501CB5DDE4FA880B980CA80EE
:10454000DB80C552D140A0922601B0922701C092D3
:104550002801D0922901C75DDE4FC880D980EA804A
:10456000FB80C952D140C0922A01D0922B01E09227
:104570002C01F0922D0100932E0110932F01209316
:1045800030013093310140933201509333016093F5
:104590003401709335018093360190933701A093D5
:1045A0003801B0933901C1010E94EA9ED1016D9199
:1045B0007D918D919C91139760935A0670935B0641
:1045C00080935C0690935D0614962D913D914D91DC
:1045D0005C91179720935E0630935F0640936006C8
:1045E00050936106E0907A10F0907B1000917C105F
:1045F00010917D10E0926206F092630600936406CB
:10460000109365060E94DB75C35DDE4F888199813A
:10461000CD52D1400E9470D90E9430972FB7F894A4
:104620006091520670915306809154069091550600
:104630002FBF0E9433DD209196063091970640915E
:104640009806509199060E94EAD46B017C0120E003
:1046500030E040E052E460915A0670915B06809130
:104660005C0690915D060E94EFD3CB5FDE4F6883BE
:1046700079838A839B83C550D14020E030E040E2BB
:1046800051E460915E0670915F06809160069091A2
:1046900061060E94EFD3C750DF4F688379838A8316
:1046A0009B83C95FD0408091620690916306A09180
:1046B0006406B0916506F10180839183A283B38380
:1046C0003F922F92C05EDE4FF881C052D140FF93DF
:1046D000C15EDE4F8880CF51D1408F92C25EDE4FE7
:1046E0009880CE51D1409F92C35EDE4FA880CD51BD
:1046F000D140AF920DB71EB7045211090FB6F8940E
:104700001EBF0FBE0DBFADB7BEB7119684E2E6E186
:10471000F1E001900D928A95E1F70E941DA9A70191
:104720009601D1016D917D918D919C910E94EFD365
:1047300020916206309163064091640650916506AF
:104740000E94F0D37B018C01609362067093630634
:1047500080936406909365060FB6F894DEBF0FBE93
:10476000CDBF20915E0630915F064091600650916A
:10477000610660915A0670915B0680915C0690918B
:104780005D060E94DB750C94B0409091C00095FFCF
:10479000FCCF8093C600319684918111F6CFE4E37B
:1047A000F6E08491882341F09091C00095FFFCCF02
:1047B0008093C6003196F5CF60915A0670915B06E2
:1047C00080915C0690915D0642E00E94DA78EFE20B
:1047D000F6E08491882341F09091C00095FFFCCFD2
:1047E0008093C6003196F5CF60915E0670915F06AA
:1047F000809160069091610642E00E94DA78EAE2D8
:10480000F6E08491882341F09091C00095FFFCCFA1
:104810008093C6003196F5CF609162067091630671
:10482000809164069091650642E00E94DA78E8E2A1
:10483000F6E08491882341F09091C00095FFFCCF71
:104840008093C6003196F5CF0E9428450C94B04065
:104850001092A1110C94B04081E08093A1110C94AE
:10486000B04085E40E945547811102C00E943097F4
:1048700056E9652E52E0752E6AE5A62E66E0B62E44
:1048800070E6872E71E1972ED12CD3018D913D01D9
:104890000E945547882309F462C0B3E0DB1237C099
:1048A0000E947B47F501608371838283938320910B
:1048B0009A0630919B0640919C0650919D0660910E
:1048C00066067091670680916806909169060E945D
:1048D0001DD80E9404D760938A0670938B0680933C
:1048E0008C0690938D068FB7F89440918A0650916C
:1048F0008B0660918C0670918D06409356065093FE
:10490000570660935806709359068FBF28C00E94BF
:104910007B47D4012D913D914D915C910E94F0D344
:10492000F5016083718382839383E0906206F09047
:104930006306009164061091650620915E06309131
:104940005F06409160065091610660915A06709131
:104950005B0680915C0690915D060E94DB75D394A6
:10496000F4E0AF0EB11C04E0800E911C14E0D112F3
:104970008CCF0C94B0408DE40E945547882311F4ED
:104980000C94E13F0E947B470E945CD56D36710517
:1049900011F40C948A330CF09BC06E31710509F44C
:1049A0001EC3C4F56631710509F44CC2C4F461310B
:1049B000710509F4E4C134F46230710508F441C1B1
:1049C0000C94B0406431710509F4E3C10CF036C2B7
:1049D0006231710511F40C94A2350C94B040693128
:1049E000710509F45EC254F46731710509F430C2EF
:1049F0006831710509F442C20C94B0406B31710505
:104A000009F467C20CF457C26C31710509F4B5C2E0
:104A10000C94B0406335710511F40C949D35ECF4A1
:104A20006A32710509F4A2C554F46F31710509F4B5
:104A300015C56032710509F472C40C94B04061353B
:104A4000710511F40C947E3514F00C949935603393
:104A5000710509F4D2C50C94B0406836710511F4A3
:104A60000C946A3214F56535710511F40C94DA353D
:104A700014F40C94A2356C35710511F00C94B0400F
:104A8000F6E9CF2EF2E0DF2E0EE816E0AAE5EA2ED8
:104A9000A0E1FA2E26E830E1CF5DDE4F398328838E
:104AA000C152D140712C0C946C366A36710511F4E8
:104AB0000C944E3514F40C949D326B36710511F044
:104AC0000C94B0401092720B1092710B0C94B04089
:104AD0006E3C710511F40C9433390CF057C06937F2
:104AE000710511F40C947E3714F56337710511F4D8
:104AF0000C947C3674F46037710511F40C948A328E
:104B00006237710511F00C94B040E5E1F3E00C94CC
:104B1000A6366737710509F490C014F00C947A3703
:104B20006537710511F40C948B360C94B040693CD8
:104B3000710511F40C9479388CF46E3B710511F405
:104B40000C944A34683C710511F40C9404386C38A8
:104B5000710511F00C94B0400C948C326C3C7105D2
:104B600011F40C94B33814F00C94D5386B3C7105E7
:104B700011F00C94B0409AE5E92E90E1F92E06E987
:104B800012E024E0D22ED00E0C94A338603921E03C
:104B9000720711F40C94EE3E2CF5623E710511F48F
:104BA0000C94863964F46C3D710511F40C94513900
:104BB0006D3D710511F40C9460390C94B0406E3267
:104BC00041E0740711F40C94A53A6F3251E0750777
:104BD00011F40C94B93A6D32714011F00C94B0405C
:104BE0000C94DF39673F91E0790711F40C94F73E9C
:104BF00094F4653FB1E07B0711F40C94F13E14F09E
:104C00000C94F43E643F714011F00C94B0400E944B
:104C100004520C94B040603A03E0700709F4E9C311
:104C2000673E13E0710711F40C94CA3F633573407B
:104C300011F00C94B0400C94FA3EE5ECF2E00C94C8
:104C40008937E0915804F09159048F010E5F1F4F8E
:104C500080E50E945547882371F00E947B470E949F
:104C600063D56B017C01AA24A394672B682B692B65
:104C700031F4A12C04C0A12CC12CD12C760183E5E8
:104C80000E945547882391F00E947B4720E030E046
:104C90004AE754E40E941DD80E9463D56B017C0151
:104CA000BB24B394672B682B692B09F4B12C6AE2FF
:104CB00070E0C8010E94E1D7009711F0DC011C925E
:104CC000F801CF0121912032E1F3A11007C0B1100A
:104CD00005C0222319F00E9446AF04C087E196E088
:104CE0000E9431AF81E080932F0610922E060E9421
:104CF00030970E9436A860937C0B70937D0B809355
:104D00007E0B90937F0BC114D104E104F104C1F038
:104D10000E9436A8C60ED71EE81EF91E0E9436A8AD
:104D20006C157D058E059F05B0F48091870484FD88
:104D300012C00E94B2940E944D740E9454AFEECFF4
:104D40008091870484FD0BC00E94B2940E944D7430
:104D50000E9454AFF5CF10922F0610922E0680912C
:104D6000AC0D882331F088E096E00E9431AF0C94BE
:104D7000B04087EF95E00E9431AF0C94B0408EEECA
:104D800095E00E9431AF5E985E9815985E980C94FD
:104D9000B040EEEDF5E08491882341F09091C000A1
:104DA00095FFFCCF8093C6003196F5CF8091C0006F
:104DB00085FFFCCF8AE08093C600109233101092DA
:104DC000321040E050E0BA018DED9DE00E94C884B1
:104DD0008BE1EDEDFDE0DE01159601900D928A95D7
:104DE000E1F78091DB0D9091DC0D9C838B8382E554
:104DF00092E09A83898340E050E0BE016F5F7F4F6D
:104E00008EEF92E00E943C6FCE0101960E945FB946
:104E1000E0EDF5E08491882341F09091C00095FF8A
:104E2000FCCF8093C6003196F5CF8091C00085FFFE
:104E3000FCCF8AE08093C6000C94B0400E94557A63
:104E40000C94B0401092AC0D1092AD0D0C94B0408B
:104E500000915804109159040C5F1F4F6AE270E0F2
:104E6000C8010E94E1D7009711F0FC01108241E0D7
:104E700061E0C8010E9421710C94B0408091AD0D99
:104E8000882319F081E08093AC0D0E9436A86093CE
:104E900022067093230680932406909325060C9493
:104EA000B0408091AC0D882311F40C94B040109266
:104EB000AC0D0C94B0408091AD0D882311F40C948E
:104EC000B04083E50E94554781110C94DB400C945F
:104ED000B0408091AD0D882309F439C0EEE3F1E0D4
:104EE0008491882341F09091C00095FFFCCF80937E
:104EF000C6003196F5CF60912D1070912E108091E3
:104F00002F10909130104AE00E945278ECE3F1E0CB
:104F10008491882341F09091C00095FFFCCF80934D
:104F2000C6003196F5CF60912510709126108091C2
:104F30002710909128104AE00E9452788091C0007A
:104F400085FFFCCF8AE08093C6000C94B040E0E57A
:104F5000F1E08491882341F09091C00095FFFCCF4F
:104F60008093C6003196F5CF8091C00085FFFCCFBD
:104F70008AE08093C6000C94B040809158049091D0
:104F800059046AE270E004960E94E1D78C01892BF3
:104F9000D9F020911B0630911C0640E6429FC001CB
:104FA000439F900D11246EE470E085569B4F0E9444
:104FB000E1D760E270E00E94E1D701969093590436
:104FC00080935804D8011C92809158049091590400
:104FD00041E060E004960E9421710C94B040809101
:104FE000AD0D882311F40C94B04088E79FE00E9437
:104FF000858488E79FE00E9401861092AA0D109296
:10500000AB0D80915804909159046AE270E00496C7
:105010000E94E1D78C01892BD9F020911B06309199
:105020001C0640E6429FC001439F900D11246EE490
:1050300070E085569B4F0E94E1D760E270E00E94CD
:10504000E1D701969093590480935804F801108297
:1050500000915804109159048091AD0D882311F4EA
:105060000C94B0405801F4E0AF0EB11C88E79FE00B
:105070000E9401861092AC0D1D8218861C821B8234
:1050800082E592E09A83898389ED9DE09093F90D02
:105090008093F80DD80114968C918F3209F090C04E
:1050A0006FE270E0C5010E94E1D78C010F5F1F4FD6
:1050B0004AE0E42EFE0131964F010115110509F475
:1050C00085C06FE270E0C8010E94E1D76C010097D3
:1050D00009F47DC00817190708F079C03C01601A6F
:1050E000710AA301B801CE0187539F4F0E940AD8CD
:1050F000E9ECF0E0EC0FFD1FE60DF71D10828E01CC
:1051000007531F4FF8018191882339F09091C00017
:1051100095FFFCCF8093C600F6CF8091C00085FF3D
:10512000FCCFE092C6006091F80D7091F90D611509
:10513000710511F06C5F7F4F21E0AE0147535F4F67
:10514000CE0105960E947E8B811132C0EAE8F1E023
:105150008491882371F09091C00095FFFCCF8093DB
:10516000C6003196F5CF9091C00095FFFCCF80939B
:10517000C600D8018D918D018111F5CFE8E8F1E0ED
:105180008491882341F09091C00095FFFCCF8093DB
:10519000C6003196F5CF8091C00085FFFCCF8AE034
:1051A0008093C600CE0101960E945FB90C94B04076
:1051B0009092F90D8092F80D86010F5F1F4F7DCF01
:1051C0008AEF9DE09093F90D8093F80D8501609131
:1051D000F80D7091F90D6115710511F06C5F7F4F3D
:1051E000C753DF4F1882C95CD040C453DF4F1882C9
:1051F000CC5CD04022E0A801CE0187539F4F0E9493
:105200007E8B882359F1CE0187539F4F0E94D07B1C
:10521000882321F1CB52DF4F688179818A819B817C
:10522000C55DD04041E00E94BC618823B9F0C752FF
:10523000DF4FE881C95DD040B0E2EB9FF00111245F
:10524000EC57F44F309751F085EE8083C453DF4F15
:105250001882CC5CD0400E947C61F82ECE0187532E
:105260009F4F0E94644CFF2041F1EAE7F1E08491F6
:10527000882341F09091C00095FFFCCF8093C60039
:105280003196F5CFF8018191882339F09091C000D3
:1052900095FFFCCF8093C600F6CF8091C00085FFBC
:1052A000FCCF8AE08093C60010922D1010922E1031
:1052B00010922F10109230102CC0E2E6F1E0849191
:1052C000882341F09091C00095FFFCCF8093C600E9
:1052D0003196F5CFF8018191882339F09091C00083
:1052E00095FFFCCF8093C600F6CFE0E6F1E0849115
:1052F000882341F09091C00095FFFCCF8093C600B9
:105300003196F5CF8091C00085FFFCCF8AE0809375
:10531000C600CE0101960E945FB90C94B040809106
:10532000AC0D81110E9430970091580410915904DE
:105330000C5F1F4F6AE270E0C8010E94E1D77C0158
:1053400061E270E0C8010E94E1D7009719F08C017A
:105350000F5F1F4FE114F10411F0F701108280E597
:105360000E945547F82E80915804909159040817CF
:10537000190708F4F12C8091AD0D882311F40C94D9
:10538000B04041E04F2561E0C8010E94217183E5F2
:105390000E9455478823B9F0809158049091590490
:1053A0008017910780F40E947047AB01BC014093C5
:1053B0002D1050932E1060932F107093301088E7AB
:1053C0009FE00E94C8848091AD0D882319F081E090
:1053D0008093AC0DF1100C94B0400E9436A86093FD
:1053E00022067093230680932406909325060C943E
:1053F000B04080915804909159046AE270E005969B
:105400000E94E1D78C01892BD9F020911B063091A5
:105410001C0640E6429FC001439F900D11246EE49C
:1054200070E085569B4F0E94E1D760E270E00E94D9
:10543000E1D701969093590480935804D8011C92A7
:10544000809158049091590421E02093AB0D41E0E4
:1054500060E005960E9421710C94B0400E9436A82D
:1054600060935404709355048093560490935704AA
:1054700000912206109123062091240630912506E2
:10548000601B710B820B930B28EE33E040E050E081
:105490000E9462E0CA01B9012CE330E040E050E034
:1054A0000E9462E07F936F933F932F9381EC95E08E
:1054B0009F938F938E010F5F1F4F1F930F930E9437
:1054C000FCDCEDE1FFE094910FB6F894DEBF0FBE77
:1054D000CDBFEDE1FFE0992349F08091C00085FF49
:1054E000FCCF9093C60031969491F5CFF80181914D
:1054F000882339F09091C00095FFFCCF8093C600BF
:10550000F6CF8091C00085FFFCCF8AE08093C60073
:10551000C8010E9446AF8091A006882311F40C9424
:10552000B0401092A00600916C1110E0000F111F06
:105530000256194FD8016D917C91072E000C880BF3
:10554000990B0E9433DD209142013091430140913B
:105550004401509145010E9450D6181614F00C9445
:10556000B040F801118210820C94B04083E50E9493
:105570005547882311F40C94B0400E947B470E9449
:105580005CD5F62EE72E862F9E2D8C0180E50E949D
:105590005547882331F00F3F110509F010F40C94A2
:1055A000EC400FEF1FEFEEE9F1E081919191801750
:1055B000910711F40C94B04021E0E63DF207A9F701
:1055C0000430110539F48F2D9E2D9093720B80932A
:1055D000710B04C017FF02C00C94B04061E0802F33
:1055E0000E9427666F2D802F0E94F7656F2D7E2DFC
:1055F000802F0E9463660C94B04086E50E94554758
:1056000081110C94F34086E70E94554781110C9458
:10561000F34022242394312C03C021143104D1F00F
:10562000E2E7F5E08491882341F09091C00095FF76
:10563000FCCF8093C6003196F5CFEEE3F5E0849180
:10564000882341F09091C00095FFFCCF8093C60065
:105650003196F5CF8EE60E9455478823F1F00E94DF
:105660007B470E945CD5C35ADE4F79836883CD5552
:10567000D140645071096F327105B8F0E7E1F5E08F
:105680008491882311F40C94B0409091C00095FF50
:10569000FCCF8093C6003196F3CF4AE050E0C35A66
:1056A000DE4F59834883CD55D14080E00E94139747
:1056B000CB5BDE4F6883C554D140C75BDE4F788338
:1056C000C954D140C35BDE4F8883CD54D140CB5AFF
:1056D000DE4F9883C555D14081E00E941397C95A87
:1056E000DE4F6883C755D140C75ADE4F7883C9550E
:1056F000D140C15ADE4F8883CF55D140CF59DE4FBC
:105700009883C156D14082E00E94139782E00E94A4
:1057100013976B017C0183E00E941397C35CDE4FFB
:10572000688379838A839B83CD53D14085E40E942B
:10573000554781110C940B4185E60E945547811114
:105740000C940B41CF5ADE4F19821882C155D140BB
:1057500088E50E94554781112EC088E70E94554771
:10576000811129C0CB5BDE4F5881C554D140CF5D3C
:10577000DE4F5883C152D140C75BDE4F8881C95488
:10578000D140CB5DDE4F8883C552D140C35BDE4F35
:105790009881CD54D140C35DDE4F9883CD52D14026
:1057A000CB5ADE4FA881C555D140C75DDE4FA883D7
:1057B000C952D14044C00E947B4720E030E040E025
:1057C00052E40E94F0D3CF5DDE4F6883C152D140D6
:1057D000CB5DDE4F7883C552D140C35DDE4F8883F9
:1057E000CD52D140C75DDE4F9883C952D14020E0F1
:1057F00030E040E951EC0E942CDD87FF02C00C94A0
:10580000154120E030E04FE753E4CF5DDE4F688183
:10581000C152D140CB5DDE4F7881C552D140C35DCE
:10582000DE4F8881CD52D140C75DDE4F9881C9528D
:10583000D1400E9450D6181614F40C94154189E5F5
:105840000E94554781112EC089E70E94554781115A
:1058500029C0C95ADE4FB881C755D140CD5CDE4F53
:10586000B883C353D140C75ADE4FE881C955D140F0
:10587000CF5CDE4FE883C153D140C15ADE4FF8817F
:10588000CF55D140C55CDE4FF883CB53D140CF59C3
:10589000DE4F8880C156D140C95CDE4F8882C75335
:1058A000D14044C00E947B4720E030E040E251E418
:1058B0000E94F0D3CD5CDE4F6883C353D140CF5CF0
:1058C000DE4F7883C153D140C55CDE4F8883CB5314
:1058D000D140C95CDE4F9883C753D14020E030E00F
:1058E00048EB51EC0E942CDD87FF02C00C94234151
:1058F00020E030E04FE753E4CD5CDE4F6881C353D6
:10590000D140CF5CDE4F7881C153D140C55CDE4FC2
:105910008881CB53D140C95CDE4F9881C753D140B9
:105920000E9450D6181614F40C9423418CE40E9463
:10593000554781110C9431418CE60E9455478111E5
:105940000C943141CF5BDE4F19821882C154D14093
:1059500020E030E040E251E4C701B6010E94F0D3FC
:105960002B013C010E94309780E090E0A0E8BFE36B
:105970008093160190931701A0931801B093190119
:1059800010921A0110921B0110921C0110921D011D
:1059900010921E0110921F011092200110922101FD
:1059A00010922201109223011092240110922501DD
:1059B0008093260190932701A0932801B093290199
:1059C00010922A0110922B0110922C0110922D019D
:1059D00010922E0110922F0110923001109231017D
:1059E000109232011092330110923401109235015D
:1059F0008093360190933701A0933801B093390119
:105A0000C35CDE4F288139814A815B81CD53D1400F
:105A100029833A834B835C838CE691E19F938F9338
:105A2000812C912CA12C90E4B92EAE014F5F5F4FD9
:105A30006A0183017201C95ADE4F2881C755D140DE
:105A4000C75ADE4F3881C955D140C15ADE4F48810F
:105A5000CF55D140CF59DE4F5881C156D140CB5B95
:105A6000DE4F6881C554D140C75BDE4F7881C95491
:105A7000D140C35BDE4F8881CD54D140CB5ADE4F3D
:105A80009881C555D1400E94EB540E9430970F90E9
:105A90000F9053E0251631040CF01FC1C35CDE4F9C
:105AA00088819981AA81BB81CD53D14089839A8312
:105AB000AB83BC83ACE6B1E1BF93AF93812C912C57
:105AC00088ECA82E82E4B82E8E010F5F1F4F68016C
:105AD00083017201CD5CDE4F2881C353D140CF5C7E
