:100000000C9408100C9432100C9432100C94321092
:100010000C9432100C9432100C9432100C94321058
:100020000C9432100C9432100C9432100C94321048
:100030000C9432100C9407840C9432100C943210EF
:100040000C9432100C94732A0C94EA500C943210D5
:100050000C946B1B0C9432100C9432100C943210D4
:100060000C9432100C9432100C9432100C94321008
:100070000C9432100C9432100C9432100C943210F8
:100080000C9432100C9432100C943210C42AD12AE1
:10009000F02AFD2A182B1B2B1E2B212B242B272B60
:1000A0002A2B2D2B6B2B302B3D2B454F484F3B4F95
:1000B0003F4F5F4F5F4F4C4F504F564F5A4F595025
:1000C0005E5063506D509B509B5077507F508750CF
:1000D0009150084AD73B3BCE016E84BCBFFDC12F77
:1000E0003D6C74319ABD56833DDA3D00C77F11BE29
:1000F000D9E4BB4C3E916BAAAABE000000803F052C
:10010000A84CCDB2D44EB93836A9020C50B991865C
:1001100088083CA6AAAA2ABE000000803F00434FE0
:100120004D4D554E49434154494F4E00445259524A
:10013000554E004552524F525300494E464F0045CE
:1001400043484F0020746F6F206C6F6E6720657896
:1001500074727573696F6E2070726576656E746502
:10016000640A0020636F6C6420657874727573692B
:100170006F6E2070726576656E7465640A00473232
:100180002F47332062616420706172616D65746510
:1001900072730A00536C6565702E2E2E005A207003
:1001A000726F6265206F75742E206265640A005A52
:1001B0002070726F6265206F75742E206265640016
:1001C000473238205A20466F7262696464656E0A4D
:1001D00000473238205A20466F7262696464656E47
:1001E0000059206F7574206F662072616E676520FC
:1001F00028312D33292E0A0058206F7574206F6620
:100200002072616E67652028312D33292E0A004740
:100210003238004D6573682070726F62696E6720B6
:10022000646F6E652E0A005374617274206D65737D
:10023000682070726F62696E672077697468202227
:10024000473239205331222066697273742E0A00B6
:100250004732380A473239205332002020000A4DF5
:100260006561737572656420706F696E74733A0AA4
:10027000005A206F66667365743A20005A207365D1
:1002800061726368206865696768743A20340A009F
:100290000A4E756D20582C593A20332C330A0053DE
:1002A000746174653A20004D65736820626564204E
:1002B0006C6576656C696E67206E6F74206163741F
:1002C0006976652E0A0053206F7574206F66207260
:1002D000616E67652028302D35292E0A00205A3A94
:1002E000200020593A200042656420583A200054EA
:1002F000726F6E7879205833412072656164792E6F
:10030000005761697420666F7220757365722E2EB6
:100310002E004E6F206D6F76652E002569730025C7
:10032000696D20256973002569682025696D202580
:10033000697300256964202569682025696D202579
:10034000697300256979202569642025696820255D
:10035000696D20256973005072696E742074696D2F
:10036000653A200050726F7465637465642050694B
:100370006E0A0048656174696E672E2E2E005472F5
:100380006F6E7879205833412072656164792E0050
:100390003F013A0133012C011E016F66660044459E
:1003A0004255473A004B494C4C45442E20004D31B4
:1003B00031332053006F6B0054726F6E7879205880
:1003C0003341204F66662E004649524D57415245F3
:1003D0005F4E414D453A4D61726C696E20312E3150
:1003E0002E302D52433820284769746875622920C1
:1003F000534F555243455F434F44455F55524C3A26
:1004000068747470733A2F2F6769746875622E630D
:100410006F6D2F4D61726C696E4669726D77617296
:10042000652F4D61726C696E2050524F544F434F8F
:100430004C5F56455253494F4E3A312E30204D4174
:100440004348494E455F545950453A54726F6E784F
:1004500079205833412045585452554445525F4302
:100460004F554E543A3120555549443A63656465B9
:10047000326132662D343161322D343734382D39C2
:100480006231322D63353563363266333637666610
:100490000A007A5F6D696E3A2000795F6D696E3A85
:1004A0002000785F6D696E3A20005265706F72743B
:1004B000696E6720656E6473746F70207374617405
:1004C00075730A0053657474696E6720547261769F
:1004D000656C20416363656C65726174696F6E3A27
:1004E000200053657474696E67205265747261638D
:1004F0007420416363656C65726174696F6E3A2044
:100500000053657474696E67205072696E7420417F
:100510006363656C65726174696F6E3A2000536540
:100520007474696E67205072696E7420616E642005
:1005300054726176656C20416363656C65726174A9
:10054000696F6E3A2000205A002059005800202080
:100550004D61783A2000205A002059005800202090
:100560004D696E3A20004F6E20004F666600536F53
:10057000667420656E6473746F70733A2000206433
:100580003A0020693A0020703A0043290A0061626B
:100590006C656420286D696E2074656D7020004361
:1005A0006F6C642065787472756465732061726520
:1005B00020004D3432312072657175697265732087
:1005C00058595A206F7220494A5A20706172616DE1
:1005D00065746572730A004D657368205859206F01
:1005E0007220494A2063616E6E6F742062652072CA
:1005F00065736F6C7665640A004D657368205859A1
:10060000206F7220494A2063616E6E6F74206265AC
:10061000207265736F6C7665640A004F6666736559
:100620007473206170706C696564004572723A2061
:10063000546F6F206661722100546F6F2066617283
:100640002066726F6D207265666572656E636520E7
:10065000706F696E740A004572726F723A00000022
:1006600090C10000B8C1000000003A20007A5F6D20
:1006700061783A20007A5F6D696E3A20005A204F07
:1006800066667365740041637469766520457874A5
:1006900072756465723A2000556E6B6E6F776E20CE
:1006A000636F6D6D616E643A202200456E647374F1
:1006B0006F70732025632025632025632025630048
:1006C000205A3A0020593A0020583A00656E647367
:1006D000746F7073206869743A20006563686F3ABC
:1006E00000656E7175657565696E672022004E6FD5
:1006F000204C696E65204E756D6265722077697455
:100700006820636865636B73756D2C204C6173742E
:10071000204C696E653A20004B494C4C45442E20D4
:100720000053544F505045442E20005072696E744F
:1007300065722073746F70706564206475652074D1
:100740006F206572726F72732E204669782074680C
:1007500065206572726F7220616E6420757365200A
:100760004D39393920746F20726573746172742E3B
:10077000202854656D7065726174757265206973A7
:100780002072657365742E2053657420697420612E
:10079000667465722072657374617274696E67291C
:1007A0000A004E6F20436865636B73756D2077692F
:1007B0007468206C696E65206E756D6265722C20A0
:1007C0004C617374204C696E653A20006368656300
:1007D0006B73756D206D69736D617463682C204C4B
:1007E000617374204C696E653A20004C696E652017
:1007F0004E756D626572206973206E6F74204C6156
:100800007374204C696E65204E756D6265722B3174
:100810002C204C617374204C696E653A20004D3178
:1008200031300020496E76616C696420657874729D
:1008300075646572200000007F4300007F43000064
:100840009E43000090C10000B8C100000000205A83
:100850003A200020593A200042656420583A20008E
:1008600020706F736974696F6E206F7574206F6686
:100870002072616E67652E0A003F50726F626520BC
:1008800000466C6F7700466C6F77004265640042EB
:100890006564004E6F7A7A6C65004E6F7A7A6C658B
:1008A00000426564205A00426564205A0053706516
:1008B0006564005370656564004D61696E00507237
:1008C000656865617420504C412042656400507237
:1008D000656865617420504C4100507265706172AA
:1008E000650050726568656174204142532042651D
:1008F0006400507265686561742041425300507213
:100900006570617265004C6576656C696E67204440
:100910006F6E6521004D6F7665205A0047323800B2
:100920004E65787420506F696E74002569202F2001
:10093000257500436C69636B20746F20426567699D
:100940006E00486F6D696E672058595A00473238FB
:10095000004C6576656C206265640043616E63657A
:100960006C004D34323800436F6F6C646F776E00EB
:100970005072656865617420414253005072656829
:1009800065617420504C41004D38340044697361F6
:10099000626C65207374657070657273004D6F765C
:1009A000652061786973004C6576656C20626564CA
:1009B0000053657420686F6D65206F66667365749B
:1009C0007300473238004175746F20686F6D6500A1
:1009D0004D61696E006265640A002C20737973743E
:1009E000656D2073746F7070656421204865617453
:1009F00065725F49443A20004B494C4C45442E20D7
:100A000000202D20496E76616C69642065787472CF
:100A100075646572206E756D62657220210A0045ED
:100A200072723A204D415854454D50204245440081
:100A30004572723A204D415854454D50004D415831
:100A400054454D502074726967676572656400454E
:100A500072723A204D494E54454D50204245440053
:100A60004572723A204D494E54454D50004D494E05
:100A700054454D502074726967676572656400253E
:100A8000753A2530327500253032753A2530327589
:100A9000005A0059005800012000012000436F6EE9
:100AA00074726F6C00507265706172650054756E7F
:100AB0006500496E666F2073637265656E004D6FE9
:100AC00076652058004D6F76652059004D6F76652C
:100AD000205A0045787472756465720045787472A6
:100AE00075646572004D6F7665205A004D6F7665AE
:100AF000205A004D6F76652059004D6F766520585D
:100B0000004D6F76652061786973004D6F766520C2
:100B1000302E316D6D004D6F766520316D6D004D5D
:100B20006F76652031306D6D005072657061726551
:100B300000526573746F7265206661696C736166DB
:100B400065004C6F6164206D656D6F727900537440
:100B50006F7265206D656D6F72790046696C616DAD
:100B6000656E74004D6F74696F6E0054656D7065CD
:100B7000726174757265004D61696E0050726568CE
:100B80006561742041425320636F6E660050726548
:100B90006865617420504C4120636F6E6600504957
:100BA000442D44005049442D44005049442D4900EF
:100BB0005049442D49005049442D50005049442D7E
:100BC00050002002204661637400200220466163C9
:100BD00074002002204D6178002002204D617800D1
:100BE0002002204D696E002002204D696E004F6684
:100BF00066004F6E20004175746F74656D70004221
:100C0000656400426564004E6F7A7A6C65004E6FD1
:100C10007A7A6C6500436F6E74726F6C0053746FF8
:100C20007265206D656D6F72790042656400426582
:100C300064004E6F7A7A6C65004E6F7A7A6C65004C
:100C400046616E2073706565640046616E20737046
:100C50006565640054656D706572617475726500D8
:100C6000206279746573290A0053657474696E672C
:100C7000732053746F726564202800454550524FAD
:100C80004D20636865636B73756D206D69736D616D
:100C90007463680A00206279746573290A002073FE
:100CA000746F7265642073657474696E6773207203
:100CB00065747269657665642028004861726463B2
:100CC0006F6465642044656661756C742053657457
:100CD00074696E6773204C6F616465640A0020203C
:100CE0004D383531205A005A2D50726F6265204FB1
:100CF000666673657420286D6D293A0A0020204DC0
:100D00003230302044300A0020204D323030204430
:100D1000002044697361626C65640A0046696C6115
:100D20006D656E742073657474696E67733A002024
:100D3000440020490020204D3330312050005049DC
:100D4000442073657474696E67733A0A0020460024
:100D500020420020480020204D3134352053004DE2
:100D60006174657269616C2068656174757020706A
:100D70006172616D65746572733A0A00205A0020D1
:100D80005900202047323920533320580020590081
:100D900020580020204D3432302053004D657368B8
:100DA00020626564206C6576656C696E673A0A003E
:100DB000205A0020590020204D323036205800485B
:100DC0006F6D65206F666673657420286D6D290AE6
:100DD00000204500205A00205900205800204200E1
:100DE00020540020204D323035205300416476617C
:100DF0006E636564207661726961626C65733A2026
:100E0000533D4D696E206665656472617465202886
:100E10006D6D2F73292C20543D4D696E20747261C5
:100E200076656C20666565647261746520286D6DF9
:100E30002F73292C20423D6D696E696D756D20738D
:100E400065676D656E742074696D6520286D732902
:100E50002C20583D6D6178696D756D205859206A58
:100E600065726B20286D6D2F73292C20205A3D6DE3
:100E70006178696D756D205A206A65726B20286DE6
:100E80006D2F73292C2020453D6D6178696D756D3E
:100E90002045206A65726B20286D6D2F73290A002A
:100EA00020540020520020204D3230342050004188
:100EB0006363656C65726174696F6E733A20503D4F
:100EC0007072696E74696E672C20523D726574721F
:100ED00061637420616E6420543D74726176656C48
:100EE0000A00204500205A0020590020204D3230B1
:100EF000312058004D6178696D756D2041636365DF
:100F00006C65726174696F6E20286D6D2F73322964
:100F10003A0A00204500205A0020590020204D3276
:100F200030332058004D6178696D756D20666565B8
:100F300064726174657320286D6D2F73293A0A00FD
:100F4000204500205A0020590020204D39322058D9
:100F50000053746570732070657220756E69743A01
:100F60000A00627573793A20706175736564206652
:100F70006F7220696E7075740A00627573793A2019
:100F800070617573656420666F7220757365720A8F
:100F900000627573793A2070726F63657373696E5E
:100FA000670A004B494C4C45442E2000506C65614B
:100FB0007365207265736574005052494E544552F2
:100FC0002048414C544544005072696E746572204B
:100FD00068616C7465642E206B696C6C28292063D1
:100FE000616C6C6564210A002D2D2D2D2D2D007C4A
:100FF0004D61726C696E7C002D2D2D2D2D2D00689C
:101000007474703A2F2F6D61726C696E66772E6FF3
:10101000726700687474703A2F2F6D61726C696E1C
:1010200066772E6F72670020312E312E302D52439D
:1010300038002020506C616E6E6572427566666580
:101040007242797465733A20002046726565204DBE
:10105000656D6F72793A2000436F6D70696C6564DD
:101060003A2044656320333020323031360A002084
:101070007C20417574686F723A20426164676565CF
:101080006B0A00323031362D31322D30362031327C
:101090003A303000204C617374205570646174657F
:1010A000643A2000312E312E302D5243380A004D43
:1010B00061726C696E0020536F667477617265208F
:1010C00052657365740A00205761746368646F67C2
:1010D0002052657365740A002042726F776E206F2C
:1010E00075742052657365740A00204578746572C2
:1010F0006E616C2052657365740A00506F7765727B
:1011000055700A0073746172740A005761726E69D7
:101110006E673A20486F6D696E672042756D70206A
:1011200044697669736F72203C20310A000000A088
:10113000400000A040000000400080884300008B79
:101140004300009E43FFFFFF4572726F722077726B
:101150006974696E6720746F20454550524F4D2168
:101160000A001000C902E0002C0100012201300138
:10117000180170010E01B0010401F001FA005002E3
:10118000F000F002E6009003DC004004D2004005CD
:10119000C8004006BE000008B400B009AA00D00B89
:1011A000A000600E960060118C00001582002019CE
:1011B0007800C01D6E00A0226400B0275A00902C59
:1011C000500000314600E0343C0010383200903AC4
:1011D0002800603C1E00A03D1400803E0A00203F15
:1011E000000000002100240027002A000000220047
:1011F000250028002B0000002000230026002900E5
:1012000002020202020202020404040404040404AE
:1012100003030303030303030101010101010101AE
:1012200001020408102040800102040810204080C0
:1012300001020408102040808040201008040201B0
:101240000000000102000000000000000403080785
:10125000000000000000000000000000000000008E
:1012600020746F6F206C6F6E672065787472757371
:10127000696F6E2070726576656E7465640A002011
:10128000636F6C6420657874727573696F6E20701B
:10129000726576656E7465640A0046696C2E20443A
:1012A00069612E0046696C2E204469612E004F66EC
:1012B00066004F6E20004520696E206D6D3300433F
:1012C0006F6E74726F6C00205A3A0020593A0020F9
:1012D000436F756E7420583A200020453A00205A1A
:1012E0003A0020593A00583A0023646566696E65F1
:1012F000202044454641554C545F4B6420002364F4
:101300006566696E65202044454641554C545F4BE7
:1013100069200023646566696E6520204445464166
:10132000554C545F4B702000504944204175746FF8
:1013300074756E652066696E6973686564212050F6
:10134000757420746865206C617374204B702C2058
:101350004B6920616E64204B6420636F6E7374610F
:101360006E74732066726F6D2062656C6F77206992
:101370006E746F20436F6E66696775726174696F12
:101380006E2E680A00504944204175746F74756E62
:1013900065206661696C6564212074696D656F758F
:1013A000740A00504944204175746F74756E65204D
:1013B0006661696C6564212054656D706572617445
:1013C00075726520746F6F20686967680A00204B2A
:1013D000643A2000204B693A2000204B703A2000EC
:1013E0000A20436C617373696320504944200A00EA
:1013F0002054753A2000204B753A2000206D61780A
:101400003A2000206D696E3A200020643A200020C6
:10141000626961733A2000526573656E643A200018
:101420006F6B004573746570732F6D6D0045737439
:101430006570732F6D6D005A73746570732F6D6DC9
:10144000005A73746570732F6D6D005973746570F5
:10145000732F6D6D005973746570732F6D6D005827
:1014600073746570732F6D6D005873746570732F8E
:101470006D6D00412D74726176656C00412D747242
:101480006176656C00412D72657472616374004110
:101490002D7265747261637400416D61782045003E
:1014A000416D6178204500416D6178205A00416DA1
:1014B0006178205A00416D6178205900416D617852
:1014C000205900416D6178205800416D61782058A5
:1014D000005654726176206D696E005654726176C2
:1014E000206D696E00566D696E00566D696E00560E
:1014F0006D6178204500566D6178204500566D611C
:1015000078205A00566D6178205A00566D61782017
:101510005900566D6178205900566D617820580049
:10152000566D617820580056652D6A65726B0056BD
:10153000652D6A65726B00567A2D6A65726B00566E
:101540007A2D6A65726B0056792D6A65726B00564A
:10155000792D6A65726B0056782D6A65726B00563C
:10156000782D6A65726B00416363656C004163634B
:10157000656C00426564205A00426564205A005A36
:10158000204F6666736574005A204F6666736574F3
:1015900000436F6E74726F6C00206E6F7420656E06
:1015A00074657265642E0A00206669727374005A4D
:1015B0000059005800486F6D6520002066697273FD
:1015C000740A005A0059005800486F6D6520005396
:1015D00074616E6461726420446576696174696FD8
:1015E0006E3A20002052616E67653A2000204D61FE
:1015F000783A2000204D696E3A20004D65616E3AC0
:10160000200046696E697368656421002072616E0E
:1016100067653A2000206D61783A2000206D696E80
:101620003A2000207369676D613A2000206D656182
:101630006E3A20003A207A3A2000206F662000207F
:101640005A00205900205800476F696E6720746F58
:101650003A00436C6F636B776973650A00436F757B
:101660006E7465722D0020446972656374696F6ED3
:101670003A2000202020616E676C653A2000537488
:10168000617274696E67207261646975733A2000D3
:10169000506F736974696F6E696E67207468652036
:1016A00070726F62652E2E2E0A003F4E756D626558
:1016B00072206F66206C65677320696E206D6F768F
:1016C000656D656E74206E6F7420706C61757369E2
:1016D000626C652028302D3135292E0A00590058BA
:1016E000003F53616D706C652073697A65206E6F81
:1016F0007420706C61757369626C652028342D35B7
:1017000030292E0A004D3438205A2D50726F6265F0
:10171000205265706561746162696C6974792054E6
:101720006573740A003F566572626F7365204C657D
:1017300076656C206E6F7420706C61757369626C75
:10174000652028302D34292E0A0024F4D43050C3CB
:101750008E20C2A24017828B7011127A910D816C7B
:10176000D90AA861E108C7586607615143061E4BB4
:101770005D05C145A7041A411104093D980371395B
:1017800031034036DB0265339102D4305402802E9F
:101790001D02632CEE01752AC501B028A001102797
:1017A00081018F2564012B244B01E0223401AC21FF
:1017B0001F018D200D01801FFC00841EED00971D70
:1017C000DF00B81CD200E61BC600201BBC00641A58
:1017D000B200B219A8000A19A0006A189900D1171E
:1017E000910040178B00B516840031167E00B315AA
:1017F00079003A157300C7146F0058146A00EE138D
:1018000066008813630025135E00C7125B006C122C
:10181000570015125400C111510070114F002111D1
:101820004B00D61049008D104700461044000210AE
:101830004200C00F4000800F3E00420F3C00060FE8
:101840003B00CB0E3800930E37005C0E3500270EA0
:101850003400F30D3200C10D3100900D3000600DE9
:101860002E00320D2D00050D2C00D90C2B00AE0CD6
:101870002900850C29005C0C2700350C27000E0C74
:101880002600E80B2400C40B2400A00B23007D0BD2
:1018900023005A0B2100390B2100180B2000F80AF5
:1018A0001F00D90A1E00BB0A1E009D0A1D00800AE7
:1018B0001D00630A1C00470A1B002C0A1B00110AAA
:1018C0001A00F7091A00DD091900C4091900AB094B
:1018D0001900920917007B091800630917004C09C9
:1018E000160036091600200916000A091500F50829
:1018F0001500E0081400CC081400B8081400A4086F
:101900001400900813007D0812006B08130058089B
:1019100012004608120034081100230811001208B2
:10192000110001081100F0071000E0071000D007B7
:101930001000C0071000B0070F00A10710009107AA
:101940000E0083070F0074070F0065070E0057078E
:101950000E0049070E003B070D002E070E00200762
:101960000D0013070D0006070D00F9060C00ED062B
:101970000D00E0060C00D4060C00C8060C00BC06E6
:101980000C00B0060C00A4060B0099060C008D0696
:101990000B0082060B0077060B006C060B0061063D
:1019A0000A0057060B004C060A0042060A003806D9
:1019B0000A002E060A0024060A001A060A0010066B
:1019C000090007060A00FD050900F4050900EB05FA
:1019D0000900E2050900D9050900D0050900C7057D
:1019E0000900BE050900B5050800AD050800A505FC
:1019F00009009C050800940508008C050800840572
:101A000008007C050800740508006C0507006505E2
:101A100008005D050700560508004E05070047054C
:101A200007004005080038050700310507002A05B2
:101A30000700230507001C050600160507000F0513
:101A400007000805060002050700FB040600F50470
:101A50000700EE040600E8040600E2040700DB04C9
:101A60000600D5040600CF040600C9040600C3041E
:101A70000600BD040600B7040600B1040500AC046E
:101A80000600A6040600A00405009B0406009504B9
:101A90000500900406008A04050085040500800402
:101AA00006007A04050075040500700405006B0447
:101AB000050066040500610405005C040500570488
:101AC0000500520405004D040500480405004304C8
:101AD00005003E0404003A04050035040500300406
:101AE00004002C04050027040400230405001E0440
:101AF00004001A04040016040500110404000D0477
:101B00000400090405000404040000040400FC03AC
:101B10000400F8030400F4030400F0030400EC03E1
:101B20000400E8030400E4030400E0030400DC0311
:101B30000400D8030400D4030400D0030400CC0341
:101B40000400C8030300C503030024F404D9201BC8
:101B5000C40C5C0E9804C4095F0265077101F405AA
:101B6000F900FB04B30048048700C103690058036F
:101B7000550003034500BE023A00840231005302BF
:101B80002A002902250004022000E4011C00C801EB
:101B90001900AF01170098011400840113007101AE
:101BA00010006101100051010E0043010D003601CB
:101BB0000B002B010B0020010B00150109000C018B
:101BC000090003010800FB000800F3000800EB0017
:101BD0000700E4000600DE000600D8000600D20080
:101BE0000600CC000500C7000500C2000500BD00CE
:101BF0000400B9000400B5000400B1000400AD0009
:101C00000400A9000400A5000300A20003009F0037
:101C100004009B000300980003009500020093005D
:101C20000300900003008D0002008B000300880079
:101C300002008600020084000300810002007F0091
:101C400002007D0002007B000200790002007700A4
:101C500001007600020074000200720001007100B1
:101C600002006F0002006D0001006C0002006A00BB
:101C700001006900020067000100660001006500C4
:101C800001006400020062000100610001006000C8
:101C900001005F0002005D0001005C0001005B00CC
:101CA00001005A00010059000100580001005700CE
:101CB00001005600010055000100540001005300CE
:101CC00000005300010052000100510001005000CB
:101CD00001004F0001004E0000004E0001004D00C9
:101CE00001004C0001004B0000004B0001004A00C5
:101CF00001004900010048000000480001004700C1
:101D000001004600000046000100450000004500BB
:101D100001004400010043000000430001004200B4
:101D200000004200010041000000410001004000AD
:101D300001003F0000003F0001003E0000003E00A7
:101D400001003D0000003D0001003C0000003C009F
:101D500000003C0001003B0000003B0001003A0095
:101D600000003A000100390000003900010038008D
:101D70000000380000003800010037000000370084
:101D8000010036000000360000003600010035007A
:101D90000000350000003500010034000000340070
:101DA0000000340001003300000033000000330065
:101DB000010032000000320000003200010031005A
:101DC0000000310000003100010030000000300050
:101DD0000000300001002F0000002F0000002F0045
:101DE00000002F0001002E0000002E0000002E0039
:101DF00001002D0000002D0000002D0000002D002E
:101E000001002C0000002C0000002C0000002C0021
:101E100001002B0000002B0000002B0000002B0015
:101E200001002A0000002A0000002A0000002A0009
:101E300001002900000029000000290000002900FD
:101E400000002900010028000000280000002800F0
:101E500000002800000028000100270000002700E3
:101E600000002700000027000000270001002600D6
:101E700000002600000026000000260000002600CA
:101E800001002500000025000000250000002500BD
:101E900000002500000025000100240000002400AF
:101EA00000002400000024000000240001002300A2
:101EB0000000230000002300000023000000230096
:101EC0000000230000002300010022000000220087
:101ED000000022000000220000002200000022007A
:101EE000010021000000210000002100000021006D
:101EF000000021000000210000002100010020005E
:101F00000000200000002000000020000000200051
:101F100000002000000020000000200001001F0041
:101F200000001F0000001F0000001F0000001F0035
:101F300000001F0000001F0001001E0000001E0026
:101F400000001E0000001E0000002042403A002059
:101F5000403A00202F0020423A00202F0020543A1F
:101F60000048656174696E6720646F6E652E003F7E
:101F70000A0020573A0048656174696E672E2E2E5C
:101F80000054726F6E787920583341207265616415
:101F9000792E0042656420646F6E652E003F0A0052
:101FA00020573A004265642048656174696E672E67
:101FB000004D31343520533C696E6465783E206FA6
:101FC0007574206F662072616E67652028302D3130
:101FD000290A004E414E494E495459494E46CDCCEE
:101FE000CC3D0AD7233C17B7D13877CC2B32959507
:101FF000E6241FB14F0A000020410000C842004003
:102000001C4620BCBE4CCA1B0E5AAEC59D7440ABCC
:1020100011241FBECFEFD0E4DEBFCDBF13E0A0E0A0
:10202000B1E0E8E5F7E701E00BBF02C007900D92D1
:10203000A037B107D9F72DE0A0E7B3E001C01D92AA
:10204000A931B207E1F710E1C8E0D0E104C021975F
:10205000FE010E9442AFC730D107C9F70E94A0908D
:102060000C94AABB0C9400008FB7F894909175085B
:1020700020917408291759F0E92FF0E0EC50F84F3F
:10208000208130E09F5F9F779093750802C02FEF0B
:102090003FEF8FBFC90108950F931F93CF93DF9335
:1020A000FC0120812B3301F11091D9051430E0F4AB
:1020B000062FBC019091DC05C92FD0E0F0E69F9F70
:1020C000C0011124855C9B4F0E947EB2FE01E3504B
:1020D000F94F00832196C370DD27C093DC051F5F95
:1020E0001093D90581E001C080E0DF91CF911F916D
:1020F0000F910895CF939091820791FB222720F9A9
:102100008217E9F0C82F811109C044E257E060E26C
:1021100077E08CE197E00E9426640AC090FF08C037
:102120009260909382078CE197E0CF910C943E638C
:10213000809182078D7F80938207C111F4CFCF9168
:10214000089580E1E0E7F3E0ACE1B7E001900D92A3
:102150008A95E1F708958F929F92AF92BF92CF92A6
:10216000EF92FF920F931F93CF93DF93CDB7DEB71C
:102170002C970FB6F894DEBF0FBECDBF4B015C01AC
:10218000C0901B07E0E7F3E080859185A285B385C9
:10219000448155816681778100811181228133815B
:1021A00009831A832B833C834D835E836F837887F7
:1021B00089879A87AB87BC87AE01475F5F4FBE01B7
:1021C0006B5F7F4FCE0101960E94266485017401EA
:1021D0002CE733E0AE01475F5F4FBE016B5F7F4F7F
:1021E000CE0101960E94E2562C960FB6F894DEBFFF
:1021F0000FBECDBFDF91CF911F910F91FF90EF9058
:10220000CF90BF90AF909F908F900895CF92EF9214
:10221000FF920F931F93CF93DF93CDB7DEB72C9729
:102220000FB6F894DEBF0FBECDBFC0901B07ECE128
:10223000F7E080859185A285B385448155816681CB
:102240007781008111812281338109831A832B8355
:102250003C834D835E836F83788789879A87AB87BA
:10226000BC87AE01475F5F4FBE016B5F7F4FCE0102
:1022700001960E942664E0900001F0900101009117
:1022800002011091030128E237E0AE01475F5F4F82
:10229000BE016B5F7F4FCE0101960E94E2562C96E5
:1022A0000FB6F894DEBF0FBECDBFDF91CF911F9167
:1022B0000F91FF90EF90CF9008954F925F926F92A1
:1022C0007F928F929F92AF92BF92CF92DF92EF92C6
:1022D000FF920F931F93CF93DF935C014B01EA01B1
:1022E00089014090000150900101609002017090BE
:1022F0000301288139814A815B81609124077091B3
:10230000250780912607909127070E9453B787FFE2
:1023100029C0F801C080D180E280F38020E030E065
:10232000A901C701B6010E9453B7811105C0C12C94
:10233000D12CE12C20E4F22EC0920001D0920101B8
:10234000E0920201F092030188819981AA81BB8108
:102350008093240790932507A0932607B09327071F
:102360000E940611F801C080D180E280F38020E055
:1023700030E0A901C701B6010E9453B7811106C020
:10238000C12CD12C98ECE92E92E4F92EC0920001D8
:10239000D0920101E0920201F0920301F5018081E7
:1023A0009181A281B38180931C0790931D07A09314
:1023B0001E07B0931F07F40180819181A281B38130
:1023C0008093200790932107A0932207B0932307BF
:1023D0000E940611288139814A815B81609124071E
:1023E0007091250780912607909127070E94B8B128
:1023F00018164CF5F801C080D180E280F38020E00F
:1024000030E0A901C701B6010E9453B7811105C090
:10241000C12CD12CE12C80E4F82EC0920001D09286
:102420000101E0920201F092030188819981AA8161
:10243000BB818093240790932507A0932607B09330
:1024400027070E9406110E94C38340920001509208
:1024500001016092020170920301DF91CF911F91FF
:102460000F91FF90EF90DF90CF90BF90AF909F9033
:102470008F907F906F905F904F9008958F929F9272
:10248000AF92BF92CF92DF92EF92FF92CF93DF9302
:10249000CDB7DEB728970FB6F894DEBF0FBECDBF1D
:1024A00020914007309141074091420750914307E6
:1024B0000E9458AF2091340730913507409136077C
:1024C000509137070E9458AF6B017C0169837A8372
:1024D0008B839C838090420190904301A0904401A3
:1024E000B090450120E030E0A901C501B4010E948F
:1024F00053B787FF0AC0A5019401C701B6010E9426
:1025000057AF69837A838B839C8320912407309112
:102510002507409126075091270769817A818B8191
:102520009C810E94B8B1181684F41D821E821F82FD
:1025300018869E012B5F3F4FAE014F5F5F4F60E2F9
:1025400077E08CE197E00E945D1128960FB6F89431
:10255000DEBF0FBECDBFDF91CF91FF90EF90DF9038
:10256000CF90BF90AF909F908F9008951F93CF937F
:10257000DF93CDB7DEB72C970FB6F894DEBF0FBE52
:10258000CDBF9091EB0C981789F1182F60E070E0A7
:1025900080E291E40E943E1280911C0790911D07F9
:1025A000A0911E07B0911F0789879A87AB87BC87C8
:1025B0008091200790912107A0912207B0912307D5
:1025C0008D839E83AF83B88719821A821B821C82F7
:1025D0009E012F5F3F4F44E257E0BE016B5F7F4F8C
:1025E000CE0109960E945D111093EB0C80E02C96B1
:1025F0000FB6F894DEBF0FBECDBFDF91CF911F9114
:102600000895682F880F770B8091380490913904D2
:102610000E946AB29C0190939F0380939E0381E085
:10262000232B09F480E0089580919E0390919F03ED
:102630004AE050E060E070E001960E946BB497FDC4
:102640001EC080919E0390919F034AE050E060E09D
:1026500070E001960E946BB46F3F71058105910592
:1026600009F07CF480919E0390919F034AE050E032
:1026700060E070E001960E946BB4862F089580E0C0
:1026800008958FEF0895E0919E03F0919F0381815B
:1026900021E030E0803239F42F5F3F4FDF01A20F9D
:1026A000B31F8C91F7CF8D3211F08B3231F42F5F45
:1026B0003F4FDF01A20FB31F8C918E3219F4E20F4E
:1026C000F31F818180538A3038F40E94141391E003
:1026D000811103C090E001C091E0892F089580919D
:1026E0009E0390919F034AE050E060E070E0019605
:1026F0000E946BB4CB01089580919E0390919F033B
:102700004AE050E060E070E001960C9496B50F93BB
:102710001F93CF93DF93C0919E03D0919F0365E4F5
:1027200070E0CE010E946AB28C01CE0101960115C3
:10273000110571F0F801108260E070E00E94FCB2B7
:1027400025E4F8012083DF91CF911F910F91089527
:1027500060E070E0DF91CF911F910F910C94FCB27B
:10276000BF92CF92DF92EF92FF920F931F93CF937E
:10277000DF9380E7E82E83E0F82E0CE117E091E389
:10278000C92E94E0D92EC6EED1E0BC2E84E0B80E5E
:1027900089910E9401138823D9F00E948713F601C2
:1027A0002081211104C020913504222331F0F80149
:1027B000208131814281538103C020E030E0A901B2
:1027C0000E9458AFF70160837183828393830AC0AC
:1027D000F80180819181A281B381F7018083918387
:1027E000A283B383F4E0EF0EF11C0C5F1F4F8FEF59
:1027F000C81AD80ABC12CCCF86E40E9401138823E1
:10280000C9F00E94871320E030E0A9010E94B8B10E
:10281000181684F40E94871320E030E040E752E469
:102820000E9452B0609300017093010180930201F5
:1028300090930301DF91CF911F910F91FF90EF9043
:10284000DF90CF90BF9008950E94871320E030E082
:102850004AE754E40E94B9B70E94CBB008950F93A1
:102860001F93CF93DF93CDB7DEB72C970FB6F894B5
:10287000DEBF0FBECDBFECE1F7E080859185A2857C
:10288000B3854481558166817781008111812281E0
:10289000338109831A832B833C834D835E836F834B
:1028A000788789879A87AB87BC87AE01475F5F4F80
:1028B000BE016B5F7F4FCE0101960E94266428E225
:1028C00037E0AE01475F5F4FBE016B5F7F4FCE01C8
:1028D00001960E94708F2C960FB6F894DEBF0FBE43
:1028E000CDBFDF91CF911F910F9108958F929F924D
:1028F000AF92BF92CF92DF92EF92FF920F931F930E
:10290000CF93DF93CDB7DEB760970FB6F894DEBFF5
:102910000FBECDBFB22ED32E7C01EE0CFF1CEE0CF1
:10292000FF1CC701845E984F4C01FC01108211828C
:10293000128213824D875E876F87788B0E942F14D7
:102940004D855E856F857889F4014083518362836C
:102950007383C0901B0720E030E0A901B8018B2DE4
:102960009D2D0E9453B7811108C0F701EC56FD4F11
:102970009080A180B280D38002C0902EA12E809141
:10298000240790912507A0912607B0912707409131
:102990002007509121076091220770912307009131
:1029A0001C0710911D0720911E0730911F070983F6
:1029B0001A832B833C834D835E836F83788789875B
:1029C0009A87AB87BC87AE01475F5F4FBE016B5FE5
:1029D0007F4FCE0101960E942664E92CFA2C0B2D24
:1029E0001D2D28E237E0AE01475F5F4FBE016B5FF0
:1029F0007F4FCE0101960E94E2560E94C38310923F
:102A0000D70560960FB6F894DEBF0FBECDBFDF913D
:102A1000CF911F910F91FF90EF90DF90CF90BF90DB
:102A2000AF909F908F900895FC016591759185916D
:102A300094910895CF92DF92EF92FF920F931F939C
:102A4000CF93DF93EC01CC0FDD1FCC0FDD1FFE0118
:102A5000E85CF84F20E030E0A9016081718182815B
:102A600093810E9458AFFE01E45DF84F20813181CF
:102A7000428153810E9458AF6B017C01CE018E5B75
:102A8000974F0E9414158E010A5C1E4FA7019601F4
:102A90000E9458AFF8016083718382839383CE01D3
:102AA0008A5C974F0E941415C65DDE4FA701960100
:102AB0000E9458AF688379838A839B83DF91CF918B
:102AC0001F910F91FF90EF90DF90CF900895AC0190
:102AD000485F5F4FBC016C5F7F4F0C9426640E947F
:102AE000DE506093920370939303809394039093CA
:102AF000950308958091420690914306A091440663
:102B0000B09145068093000190930101A0930201CA
:102B1000B093030180914006909141069093170174
:102B2000809316010C946F15809100019091010122
:102B3000A0910201B0910301809342069093430655
:102B4000A0934406B0934506809116019091170119
:102B5000909341068093400684E690E0909317019D
:102B6000809316010C946F159091C00095FFFCCFD7
:102B70008093C6000895EF92FF921F93CF93DF9347
:102B80001F92CDB7DEB7182FE9E7F8E084917F01F7
:102B90002FEFE21AF20A882331F099830E94B415CC
:102BA000F7019981F3CFE12FF92F84917F019FEFF6
:102BB000E91AF90A882321F00E94B415F701F5CF2C
:102BC000E0E6F8E084917F012FEFE21AF20A882311
:102BD00021F00E94B415F701F5CF0F90DF91CF914E
:102BE0001F91FF90EF9008950F931F93CF93DF9362
:102BF00000D0CDB7DEB7FC0184918F010F5F1F4F6E
:102C0000811102C08B0108C069837A830E94B415C8
:102C1000F80169817A81F0CFF80181918F018823D1
:102C200019F00E94B415F8CF0F900F90DF91CF915B
:102C30001F910F910895BF92CF92DF92EF92FF9272
:102C40000F931F93CF93DF93CDB7DEB76E970FB679
:102C5000F894DEBF0FBECDBF6091800370918103F9
:102C60006115710571F14DE150E08E010F5F1F4F4D
:102C7000C8010E94FAB61E8EF8017F01E01AF10A1F
:102C8000B190BB2039F18AE0B812F7CF23C0B80168
:102C900081EE96E00E94F41582E20E94B4158AE06B
:102CA0000E94B415BB2069F18FEFE81AF80A8091F1
:102CB000800390918103E80EF91EF0928103E09267
:102CC000800381E02091800330918103232BF1F474
:102CD00080E01CC0F801EE0DFF1D108260E0C8010D
:102CE0000E944C10882369F3EBEDF6E084916F01AC
:102CF0009FEFC91AD90A882351F20E94B415F60130
:102D0000F5CF1092810310928003DBCF6E960FB641
:102D1000F894DEBF0FBECDBFDF91CF911F910F9111
:102D2000FF90EF90DF90CF90BF9008958F929F9289
:102D3000AF92BF92EF92FF921F93CF93DF93CDB7E5
:102D4000DEB7A0970FB6F894DEBF0FBECDBF6115FA
:102D500071058105910581F110E0842E912CA12C43
:102D6000B12CEE24E394F12CEC0EFD1EE10EF11CCF
:102D700017FDFA94A50194010E9447BBF7016083F7
:102D8000B901CA011F5F611571058105910549F7F8
:102D9000115020F1E1E0F0E0EC0FFD1FE10FF11D1B
:102DA00017FDFA9580818A3010F097E301C090E317
:102DB000890F0E94B415ECCF80E3A0960FB6F8946B
:102DC000DEBF0FBECDBFDF91CF911F91FF90EF907F
:102DD000BF90AF909F908F900C94B415A0960FB6B3
:102DE000F894DEBF0FBECDBFDF91CF911F91FF9052
:102DF000EF90BF90AF909F908F900895CF92DF9209
:102E0000EF92FF92CF93DF936A017B01FC018491E3
:102E1000EF012196882321F00E94B415FE01F7CF1F
:102E20004AE0C701B601DF91CF91FF90EF90DF90AC
:102E3000CF900C949616CF92DF92EF92FF926B0197
:102E40007C0197FF0BC08DE20E94B415F094E094D2
:102E5000D094C094C11CD11CE11CF11C4AE0C701F4
:102E6000B601FF90EF90DF90CF900C949616EF9202
:102E7000FF920F931F93CF93DF931F92CDB7DEB7CF
:102E8000082F162FE7E5F6E084917F012FEFE21A75
:102E9000F20A882331F099830E94B415F7019981D1
:102EA000F3CFE02FF92F84917F019FEFE91AF90A00
:102EB000882321F00E94B415F701F5CF60917608C0
:102EC0007091770880917808909179080E941B177B
:102ED0008AE00E94B41511110E945C7110923E06A6
:102EE00010923D060F90DF91CF911F910F91FF90AF
:102EF000EF900895DF92EF92FF920F931F93CF937D
:102F0000DF930E941B1681113DC18091D905843049
:102F100008F038C12FB7F894809174089091750823
:102F20002FBF891B8F7709F42DC10E943410209187
:102F30003D0630913E068A3019F08D3009F0F1C01F
:102F400010923F062115310501F3F901E352FA4FC2
:102F5000108210923E0610923D062DED35E089015B
:102F6000F90180812F5F3F4F8032C9F3E8018E3431
:102F700011F000E010E06AE270E0CE010E946AB257
:102F80007C010115110509F473C06EE178E0CE01F2
:102F90000E9409B7DD24D394892B11F4D12C09C0E8
:102FA0006EE470E0CE0104960E946AB2009709F0C8
:102FB0008C014AE050E060E070E0C80101960E9498
:102FC0006BB46093A0037093A1038093A2039093CA
:102FD000A30300917608109177082091780830912A
:102FE00079080F5F1F4F2F4F3F4F60177107820700
:102FF000930731F0D11004C061E08BEE97E03DC043
:10300000E114F10401F180E010E0FE01E80FF11D90
:1030100090819A3219F08F5F1927F7CF4AE050E07C
:1030200060E070E0C70101960E946BB4012F10E0D0
:1030300020E030E0601771078207930741F061E0FC
:103040008CEC97E01AC061E082EA97E016C08091AC
:10305000A0039091A103A091A203B091A303809338
:10306000760890937708A0937808B09379080EC0FB
:10307000892B61F060E08EEE96E0DF91CF911F9199
:103080000F91FF90EF90DF900C94371780914601DD
:10309000811122C067E470E0CE010E946AB20097FD
:1030A000D9F04AE050E060E070E001960E946BB415
:1030B0006430710588F4EBE2F7E084918F010F5FD3
:1030C0001F4F882321F00E94B415F801F6CF60E06D
:1030D00081E297E00E94465660E173E0CE010E94D3
:1030E00075B2892B21F4109247011092960365E185
:1030F00073E0CE010E9475B2892B21F488E197E03C
:103100000E9442476AE173E0CE010E9475B2892BAA
:1031100011F40E94927161E08DED95E00E944C10D7
:10312000F4CE2F3531050CF0F0CE8C35B1F42FB73D
:10313000F89480917408909175082FBF891B8F7740
:1031400009F4E3CE0E94341090913F069111DDCE38
:1031500020913D0630913E0609C08B3319F491E071
:1031600090933F0690913F069111CFCEA9014F5FFA
:103170005F4F50933E0640933D06F901E352FA4FEC
:103180008083C3CEDF91CF911F910F91FF90EF907D
:10319000DF9008950F931F93CF93DF938B01FC0172
:1031A0008491EF012196882321F00E94B415FE013D
:1031B000F7CFB801110F880B990BDF91CF911F91B9
:1031C0000F910C941B17EF92FF921F93CF93DF93F5
:1031D0007C0184E50E940113182F882351F10E947D
:1031E0001413882301F1EBEDF6E08491EF012196B1
:1031F000882321F00E94B415FE01F7CF8DE40E94D0
:10320000B415B701FF0C880B990B0E941B170E9485
:103210001413682F70E083E298E00E94CA188AE0D5
:103220000E94B4150AC00E9414138093170410E082
:1032300004C080911B0780931704812FDF91CF91E9
:103240001F91FF90EF9008958F929F92AF92BF923F
:10325000CF92DF92EF92FF92CF936B017C01B42E5D
:1032600020E030E0A9010E9453B787FF07C08DE23C
:103270000E94B415F7FAF094F7F8F094C0E060E01B
:1032800070E080E09FE3CB1541F02DEC3CEC4CEC82
:103290005DE30E94B9B7CF5FF6CF9B01AC01C701D8
:1032A000B6010E9458AF6B017C010E94CBB04B016C
:1032B0005C014AE00E949616CC2389F1C501B40155
:1032C0000E9458B79B01AC01C701B6010E9457AFDD
:1032D0006B017C018EE20E94B41520E030E040E2F8
:1032E00051E4C701B6010E94B9B74B015C010E94CD
:1032F000C4B06B01770FEE08FF08C701B6010E944A
:103300001B17C701B6010E945AB79B01AC01C5014A
:10331000B4010E9457AF6B017C01C150F1F6CF910F
:10332000FF90EF90DF90CF90BF90AF909F908F90E5
:103330000895CF92DF92EF92FF92CF93DF936A01CD
:103340007B01FC018491EF012196882321F00E94EA
:10335000B415FE01F7CF42E0C701B601DF91CF916E
:10336000FF90EF90DF90CF900C9424192F923F9212
:103370004F925F926F927F928F929F92AF92BF9285
:10338000CF92DF92EF92FF920F931F93CF93DF9331
:10339000CDB7DEB72F970FB6F894DEBF0FBECDBF07
:1033A0001C017E876D874F878901409000015090F6
:1033B0000101609002017090030160E070E080E024
:1033C00090E40E943E1280E090E0A8ECB2E480938A
:1033D000000190930101A0930201B09303011986AB
:1033E0001A861B861C8620E030E040E251E4ED8521
:1033F000FE8560817181828193810E9458AF6D83C7
:103400007E838F83988720E030E040E052E4F10132
:1034100060817181828193810E9458AF69837A8330
:103420008B839C839E01275F3F4F44E257E0BE01A0
:103430006B5F7F4FCE0101960E945D1181E00E947B
:10344000B612882339F0C12CD12C80ECE82E8FE7FE
:10345000F82E09C10E946F1520E030E040E050E4F2
:103460006091400770914107809142079091430716
:103470000E9458AF209134073091350740913607AC
:10348000509137070E9458AF6B017C0169877A879A
:103490008B879C878090420190904301A0904401CB
:1034A000B090450120E030E0A901C501B4010E94BF
:1034B00053B787FF0AC0A5019401C701B6010E9456
:1034C00057AF69877A878B879C8720912407309133
:1034D0002507409126075091270769857A858B85B6
:1034E0009C850E9453B787FF14C080E090E0A0E065
:1034F000B0E489839A83AB83BC839E012F5F3F4FE7
:10350000AE01475F5F4F60E277E08CE197E00E9499
:103510005D1180E090E0A0E8BFE38D839E83AF83E0
:10352000B88720E030E043EA53E4609140077091AF
:10353000410780914207909143070E9457AF209125
:1035400034073091350740913607509137070E9474
:1035500058AF69837A838B839C839E012B5F3F4F97
:10356000AE014F5F5F4F60E277E08CE197E00E9431
:103570005D111092D7050E948C7089E194E00E9441
:103580003E638091210490912204A0912304B09184
:1035900024048093240790932507A0932607B093D3
:1035A00027070E942F14C0902407D0902507E09091
:1035B0002607F0902707FF85F11107C060E070E053
:1035C00080E090E40E943E1205C080E00E94B612A6
:1035D000811139CF033011050CF43DC0E8E5F8E066
:1035E00084918F010F5F1F4F882321F00E94B41533
:1035F000F801F6CFF101608171818281938143E00E
:103600000E942419E3E5F8E084918F010F5F1F4FBA
:10361000882321F00E94B415F801F6CFED85FE85D0
:10362000608171818281938143E00E942419EEE4DC
:10363000F8E084918F010F5F1F4F882321F00E94D3
:10364000B415F801F6CF43E0C701B6010E94241972
:103650008AE00E94B41540920001509201016092EC
:10366000020170920301C701B6012F960FB6F894BC
:10367000DEBF0FBECDBFDF91CF911F910F91FF90A5
:10368000EF90DF90CF90BF90AF909F908F907F9002
:103690006F905F904F903F902F900895CF92DF9260
:1036A000EF92FF92CF93DF936A017B01FC0184913B
:1036B000EF012196882321F00E94B415FE01F7CF77
:1036C00042E0C701B601DF91CF91FF90EF90DF900C
:1036D000CF900C9424191F920F920FB60F921124C1
:1036E0000BB60F922F933F938F939F93EF93FF937C
:1036F0002091C6009FB7F894E091740881E08E0F86
:103700008F7730917508831731F0F0E0EC50F84F67
:103710002083809374089FBFFF91EF919F918F91B9
:103720003F912F910F900BBE0F900FBE0F901F90E7
:10373000189580918901882331F060E070E086E07F
:1037400099E00E94D12684E08093890108950F9327
:103750001F93CF93DF931092E30780910907909115
:103760000A07A0910B07B0910C0781309048A10582
:10377000B10540F01092090710920A0710920B074A
:1037800010920C07C091090780914B061816DCF4C3
:10379000282F082E000C330B215031094C2F0C2EF2
:1037A000000C550B4217530774F0CFEFC80F8C2F46
:1037B00090E0A0E0B0E08093090790930A07A093FF
:1037C0000B07B0930C071092E2078091E107C8172E
:1037D00014F4C093E1078091E107082E000C990BC7
:1037E00003962C2F0C2E000C330B8217930724F416
:1037F0008DEF8C0F8093E1071091E107D0E08D2FC2
:10380000810FB9F480918901882351F081E0C111C1
:1038100080E003E023E04BE559E06D2F0E948D2509
:103820008091E907882321F1C11122C00E947625E9
:103830001BC08130E9F480918901882359F081E02F
:10384000C13009F080E00EE32EE341E559E06D2F31
:103850000E948D258091E907882351F0C13041F401
:103860008FE190E20E94A8AD8091E207811110C023
:10387000DF5FD43021F682E080934B068091BD0754
:1038800087FF06C0DF91CF911F910F910C94762591
:10389000DF91CF911F910F910895AF92BF92CF9278
:1038A000DF92EF92FF920F931F93CF93DF931092CB
:1038B000E3078091090790910A07A0910B07B09147
:1038C0000C0781309048A105B10540F0109209071E
:1038D00010920A0710920B0710920C07C09109076B
:1038E000809148061816DCF4282F082E000C330BA4
:1038F000215031094C2F0C2E000C550B4217530749
:1039000074F0CFEFC80F8C2F90E0A0E0B0E0809370
:10391000090790930A07A0930B07B0930C07109226
:10392000E2078091E107C81714F4C093E107809182
:10393000E107082E000C990B03962C2F0C2E000C7F
:10394000330B8217930724F48DEF8C0F8093E107DC
:103950001091E107D0E0111118C0809189018823EE
:1039600051F081E0C11180E003E023E04EEF58E028
:103970006D2F0E948D258091E907882309F479C075
:10398000C11177C00E94762570C0113009F04CC07B
:1039900080918901882359F081E0C13009F080E0ED
:1039A00000E22EE342EF58E06D2F0E948D258091BA
:1039B000E907882309F45DC0C13009F05AC0A0901E
:1039C000E406B090E5066091E8067091E906072EDE
:1039D000000C880B990B0E945AB76B017C0120E008
:1039E00030E0A9010E94B8B11816CCF420E030E80C
:1039F00049E853E4C701B6010E94B8B118163CF477
:103A0000C12C80E8D82E89E8E82E83E4F82EC7017F
:103A1000B6010E94C4B070939D0360939C03B09262
:103A2000A503A092A4031FC0123019F5809189014B
:103A3000882359F081E0C23009F080E000E22EE3F3
:103A400042EE58E06D2F0E948D258091E907882372
:103A500081F0C23071F48091E4069091E506909374
:103A6000A5038093A4030E946F258091E207811132
:103A700018C0DF5F1F5FD43009F06DCF83E0809303
:103A800048068091BD0787FF0CC0DF91CF911F9141
:103A90000F91FF90EF90DF90CF90BF90AF900C947C
:103AA0007625DF91CF911F910F91FF90EF90DF90DE
:103AB000CF90BF90AF900895AF92BF92CF92DF9218
:103AC000EF92FF920F931F93CF93DF931092E30730
:103AD0008091090790910A07A0910B07B0910C07FC
:103AE00081309048A105B10540F01092090710926D
:103AF0000A0710920B0710920C07C09109078091DA
:103B000047061816DCF4282F082E000C330B215022
:103B100031094C2F0C2E000C550B4217530774F033
:103B2000CFEFC80F8C2F90E0A0E0B0E080930907A2
:103B300090930A07A0930B07B0930C071092E2072B
:103B40008091E107C81714F4C093E1078091E10761
:103B5000082E000C990B03962C2F0C2E000C330B07
:103B60008217930724F48DEF8C0F8093E107109157
:103B7000E107D0E0111118C080918901882351F02C
:103B800081E0C11180E003E023E04AED58E06D2FB1
:103B90000E948D258091E907882309F479C0C1111D
:103BA00077C00E94762570C0113009F04CC080911A
:103BB0008901882359F081E0C13009F080E000E2FA
:103BC0002EE34EEC58E06D2F0E948D258091E90781
:103BD000882309F45DC0C13009F05AC0A090E20604
:103BE000B090E3066091E6067091E706072E000CA0
:103BF000880B990B0E945AB76B017C0120E030E0E2
:103C0000A9010E94B8B11816CCF420E030E849E8C8
:103C100053E4C701B6010E94B8B118163CF4C12C98
:103C200080E8D82E89E8E82E83E4F82EC701B60193
:103C30000E94C4B070939D0360939C03B092A5034F
:103C4000A092A4031FC0123019F580918901882326
:103C500059F081E0C23009F080E000E22EE34EEB43
:103C600058E06D2F0E948D258091E907882381F00F
:103C7000C23071F48091E2069091E3069093A5031F
:103C80008093A4030E946F258091E207811118C0E0
:103C9000DF5F1F5FD43009F06DCF83E0809347066C
:103CA0008091BD0787FF0CC0DF91CF911F910F91CD
:103CB000FF90EF90DF90CF90BF90AF900C9476255F
:103CC000DF91CF911F910F91FF90EF90DF90CF90F8
:103CD000BF90AF900895AF92BF92CF92DF92EF92D4
:103CE000FF920F931F93CF93DF931092E30780917E
:103CF000090790910A07A0910B07B0910C0781303A
:103D00009048A105B10540F01092090710920A07EA
:103D100010920B0710920C07C091090780914C0676
:103D20001816DCF4282F082E000C330B2150310913
:103D30004C2F0C2E000C550B4217530774F0CFEF8D
:103D4000C80F8C2F90E0A0E0B0E08093090790931B
:103D50000A07A0930B07B0930C071092E20780911B
:103D6000E107C81714F4C093E1078091E107082E1A
:103D7000000C990B03962C2F0C2E000C330B821782
:103D8000930724F48DEF8C0F8093E1071091E107E6
:103D9000D0E088E8E82E89E0F82E92E6C92E99E076
:103DA000D92E22ECA22E29E0B22E111118C080913A
:103DB0008901882351F081E0C11180E003E023E014
:103DC00040ED59E06D2F0E948D258091E9078823F1
:103DD00009F4F1C0C111EFC00E947625E8C011308E
:103DE000E1F480918901882359F081E0C13009F024
:103DF00080E000E22EE346EC59E06D2F0E948D2515
:103E00008091E907882309F4D6C0C13009F0D3C0F6
:103E1000B0928103A092800375C01230F1F48091BA
:103E20008901882359F081E0C23009F080E000E286
:103E30002EE341EB59E06D2F0E948D258091E9071B
:103E4000882309F4B8C0C23009F0B5C0D09281030C
:103E5000C09280030E941B16A8C01330D1F4809139
:103E60008901882359F081E0C33009F080E00EE336
:103E70002EE347EA59E06D2F0E948D258091E907D6
:103E8000882309F498C0C33009F095C087EA9BE104
:103E900056C01430D1F480918901882359F081E013
:103EA000C43009F080E00EE32EE34DE959E06D2FB8
:103EB0000E948D258091E907882309F47CC0C430D5
:103EC00009F079C082E69FE23AC01530F1F48091A2
:103ED0008901882359F081E0C53009F080E000E2D3
:103EE0002EE34CE859E06D2F0E948D258091E90763
:103EF000882309F460C0C53009F05DC0F0928103E9
:103F0000E09280030E941B1652C01630D9F48091B3
:103F10008901882359F081E0C63009F080E00EE382
:103F20002EE34CE759E06D2F0E948D258091E90723
:103F3000882309F440C0C630F1F58CE59DE10E946C
:103F4000A8AD35C01730C1F480918901882359F09C
:103F500081E0C73009F080E00EE32EE340E759E04E
:103F60006D2F0E948D258091E907882321F1C730AC
:103F700011F58DE49CE1E3CF1830E9F480918901DB
:103F8000882359F081E0C83009F080E000E22EE398
:103F900047E659E06D2F0E948D258091E90788231F
:103FA00051F0C83041F40E94ED290E946F258091A4
:103FB000E207811118C0DF5F1F5FD43009F0F5CE32
:103FC00089E080934C068091BD0787FF0CC0DF918C
:103FD000CF911F910F91FF90EF90DF90CF90BF9006
:103FE000AF900C947625DF91CF911F910F91FF90A8
:103FF000EF90DF90CF90BF90AF90089580918901AE
:10400000882331F060E070E082E499E00E94D126DC
:1040100084E08093890180912D04882379F0809138
:104020002E04882359F080912F04882339F040E032
:1040300050E0BA0188E390E20C944A25089581E0AB
:104040008093E807EDE2F4E01282118210820E9470
:10405000174E8DE499E090938103809380030E9432
:104060001B1640E050E0BA018EEF9FE10C944A2508
:104070000F931F93CF93DF93CDB7DEB72C970FB677
:10408000F894DEBF0FBECDBF80918901882331F047
:1040900060E070E083E399E00E94D1268091E90717
:1040A000882309F447C010924A0680E090E0A0E817
:1040B000B0E48093240790932507A0932607B0933C
:1040C00027074091200750912107609122077091A6
:1040D000230700911C0710911D0720911E073091A6
:1040E0001F0709831A832B833C834D835E836F8371
:1040F000788789879A87AB87BC87AE01475F5F4F18
:10410000BE016B5F7F4FCE0101960E94266428E2BC
:1041100037E0AE01475F5F4FBE016B5F7F4FCE015F
:1041200001960E94708F40E050E0BA0185EA90E26B
:104130000E944A252C960FB6F894DEBF0FBECDBF65
:10414000DF91CF911F910F9108951F93CF93DF932C
:1041500000D000D0CDB7DEB740E050E0BA0180EF2C
:1041600090E20E944A2580914A0663E00E940CAFCB
:10417000192F80FF03C092E0911B192F282F31E8DF
:104180002303B00111246D507109072E000C880B18
:10419000990B0E945AB79B01AC016EE71602C00151
:1041A00011240897BC01990F880B990B29833A8336
:1041B0004B835C830E945AB729813A814B815C8191
:1041C0000E94DE8240E050E0BA018CE291E20F9062
:1041D0000F900F900F90DF91CF911F910C944A2573
:1041E0000F931F93CF93DF93CDB7DEB72A970FB608
:1041F000F894DEBF0FBECDBF809189018823F1F016
:104200001F9289E08F9380914A0690E001969F93D8
:104210008F938BE299E09F938F938E010F5F1F4FD7
:104220001F930F930E9423B7B80180E299E00E9488
:10423000D1260FB6F894DEBF0FBECDBF84E08093C9
:1042400089012A960FB6F894DEBF0FBECDBFDF916D
:10425000CF911F910F910895CF92DF92EF92FF922D
:10426000CF93DF9300D000D0CDB7DEB780910907A0
:1042700090910A07A0910B07B0910C07892B8A2B0C
:104280008B2B09F45FC00E946F1560910907709134
:104290000A0780910B0790910C070E945AB72DECEA
:1042A0003CEC4CEC5CE30E94B9B7209124073091C0
:1042B000250740912607509127070E9458AF6B01B0
:1042C0007C0120E030E0A9010E9453B787FD09C0BE
:1042D000C0922407D0922507E0922607F092270784
:1042E00008C01092240710922507109226071092FA
:1042F000270720E030E040E051E46091240770910E
:10430000250780912607909127070E94B8B11816BB
:1043100064F480E090E0A0E0B1E4809324079093FF
:104320002507A0932607B09327070E94B94E81E086
:10433000809389011092090710920A0710920B07C7
:1043400010920C078091E907882309F462C08091DC
:104350004906811160C081E08093490680914A0638
:1043600031E0380F30934A0663E00E940CAF292FEA
:1043700080FF03C092E0921B292F082E000C990B9E
:10438000FC01EE0FFF1FE80FF91FE20FF11D27FDE3
:10439000FA95EE0FFF1FEE0FFF1FEE57F84F8091BB
:1043A000240790912507A0912607B09127078583C0
:1043B0009683A783B08740E050E0BA01393021F5F9
:1043C00089E99BE10E944A2580E090E0A0ECB0E4FE
:1043D0008093240790932507A0932607B09327077F
:1043E0000E94B94E0E94C3838091820781608093AE
:1043F00082078CE199E090938103809380030E946F
:104400001B160E946F2507C085EA90E20E944A258C
:1044100002C01092490680918901882391F120E021
:1044200030E040E850E460912407709125078091C6
:104430002607909127070E9457AF6B017C0120E06F
:1044400030E0A9010E9453B787FD05C027E137EB93
:1044500041ED58E304C027E137EB41ED58EBC701CC
:10446000B6010E9458AF69837A838B839C836BE289
:10447000CE0101960E948F53BC0185E199E00E9414
:10448000D1260F900F900F900F90DF91CF91FF905A
:10449000EF90DF90CF9008952F923F924F925F92CE
:1044A0006F927F928F929F92AF92BF92CF92DF9244
:1044B000EF92FF920F931F93CF93DF931092E30736
:1044C0008091090790910A07A0910B07B0910C0702
:1044D00081309048A105B10540F010920907109273
:1044E0000A0710920B0710920C07C09109078091E0
:1044F00046061816DCF4282F082E000C330B21502A
:1045000031094C2F0C2E000C550B4217530774F039
:10451000CFEFC80F8C2F90E0A0E0B0E080930907A8
:1045200090930A07A0930B07B0930C071092E20731
:104530008091E107C81714F4C093E1078091E10767
:10454000082E000C990B03962C2F0C2E000C330B0D
:104550008217930724F48DEF8C0F8093E10710915D
:10456000E107D0E081EA282E88E0382E93E8E92E92
:1045700097E0F92E28E1822E2CEF922EAA24AA94FD
:10458000BA2C30ED432E37E0532E612C712C40EACB
:10459000C42E48E6D42E111118C0809189018823B9
:1045A00051F081E0C11180E003E023E049EB58E0E5
:1045B0006D2F0E948D258091E907882309F411C190
:1045C000C1110FC10E94762508C1113019F58091E3
:1045D0008901882371F086E191E00E9477559C0162
:1045E00081E0C13009F080E043EB58E06D2F0E947C
:1045F0002BAD8091E907882309F4F3C0C13009F09D
:10460000F0C027EE33E04AE050E066E171E08DEA69
:1046100098E0E1C0123009F05BC0809189018823E5
:1046200079F060E283E897E00E948F539C0181E07B
:10463000C23009F080E047EA58E06D2F0E942BADB0
:104640008091E907882309F4CCC0C23009F0C9C0C1
:104650000E9420AB83E0809389013092180720925A
:104660001707F0921607E0921507809211079092B3
:104670001207A0921307B092140740920D075092B0
:104680000E0760920F077092100720E030E04AE7B3
:1046900054E460918307709184078091850790911D
:1046A00086070E94B9B720E030E04AE754E40E9450
:1046B00058AF0E94CBB06093090770930A078093AC
:1046C0000B0790930C07D0928B01C0928A0185C092
:1046D000133071F580918901882371F08CE993E0A2
:1046E0000E9477559C0181E0C33009F080E04AE9DF
:1046F00058E06D2F0E942BAD8091E907882309F4C3
:1047000070C0C33009F06DC021E02093E307109220
:10471000DD071092DE071092DF071092E00729E410
:1047200035E244E051E06CE973E083E998E02EC0A3
:10473000143079F580918901882371F084EA93E03F
:104740000E9477559C0181E0C43009F080E04FE879
:1047500058E06D2F0E942BAD8091E907882309F462
:1047600040C0C430F1F581E08093E3071092DD078B
:104770001092DE071092DF071092E00728E435E27E
:1047800043E750E064EA73E08BE898E00E948EAB68
:1047900024C0153031F580918901882371F088E1BA
:1047A00091E00E9477559C0181E0C53009F080E0DE
:1047B00046E858E06D2F0E942BAD8091E9078823D1
:1047C00081F0C53071F427EE33E04AE050E068E153
:1047D00071E081E898E00E94B6AE8091E207811115
:1047E00020C0DF5F1F5FD43009F0D5CE86E0809314
:1047F00046068091BD0787FF14C0DF91CF911F91BE
:104800000F91FF90EF90DF90CF90BF90AF909F906F
:104810008F907F906F905F904F903F902F900C946F
:104820007625DF91CF911F910F91FF90EF90DF9050
:10483000CF90BF90AF909F908F907F906F905F9040
:104840004F903F902F900895CF92DF92EF92FF927A
:10485000CF93C82F0E94DE506B017C0124EA30E721
:104860004DE75FE36091DE067091DF068091E00620
:104870009091E1060E9453B787FD05C04AEF50E0D2
:1048800060E070E003C040E050E0BA01C40ED51E05
:10489000E61EF71EC092E407D092E507E092E60715
:1048A000F092E707C093D501CF91FF90EF90DF9092
:1048B000CF9008952F923F924F925F926F927F9286
:1048C0008F929F92AF92BF92CF92DF92EF92FF9220
:1048D0000F931F93CF93DF932091E9072223A1F039
:1048E000DF91CF911F910F91FF90EF90DF90CF90CC
:1048F000BF90AF909F908F907F906F905F904F9000
:104900003F902F900C9476258B011C018091090714
:1049100090910A07A0910B07B0910C07892B8A2B65
:104920008B2B09F47FC00E946F1580911501E8015F
:10493000CC0FDD1FCC0FDD1FFE01882371F0EA5C78
:10494000FE4F4080518062807380FE01E65DFE4F25
:10495000C080D180E280F3801AC0E45EF84FC0804E
:10496000D180E280F38020E030E04AE754E4C701E0
:10497000B6010E9457AF2B013C0120E030E04AE72E
:1049800054E4C701B6010E9458AF6B017C018090CE
:10499000090790900A07A0900B07B0900C07C45E1F
:1049A000D84FC501B4010E945AB72091DE0630915C
:1049B000DF064091E0065091E1060E94B9B72881D8
:1049C00039814A815B810E9458AF688379838A83E9
:1049D0009B83B7FE0BC0A30192010E9453B787FFD0
:1049E00013C0488259826A827B820EC089288A2835
:1049F0008B2851F0A70196010E94B8B1181624F433
:104A0000C882D982EA82FB82C8010E9424241092C3
:104A1000090710920A0710920B0710920C0781E009
:104A200080938901809189018823F9F0C801880F5A
:104A3000991F880F991F845E984F0E940954BC01EA
:104A4000C101DF91CF911F910F91FF90EF90DF9007
:104A5000CF90BF90AF909F908F907F906F905F901E
:104A60004F903F902F900C94D126DF91CF911F91C2
:104A70000F91FF90EF90DF90CF90BF90AF909F90FD
:104A80008F907F906F905F904F903F902F90089500
:104A90000895089520918A0130918B0128173907D4
:104AA000E9F090938B0180938A014093090750931A
:104AB0000A0760930B0770930C078552974221F405
:104AC0001092E8071092D70684E497E00E94BD5147
:104AD00082E08093890181E08093E207089540E0BD
:104AE00050E0BA0185E297E20C944A25E091D7069E
:104AF000EE2389F0E150E093D70686E0E89FF001CD
:104B00001124E556F94F428153816481758180817A
:104B100091810C944A250C946F25EF92FF920F938C
:104B20001F93CF93DF931F92CDB7DEB7182F7A0173
:104B300080E029830E94814A2981112311F0822F6C
:104B400001C080E20E949C4E12E1F701649166234D
:104B500011F0111111C0112329F080E20E949C4E26
:104B60001150F9CF802F0F90DF91CF911F910F91AE
:104B7000FF90EF900C949C4E84E497E00E94B45117
:104B80001150FFEFEF1AFF0AE0CF0F931F93CF935F
:104B9000DF931092E3078091090790910A07A09193
:104BA0000B07B0910C0781309048A105B10540F08A
:104BB0001092090710920A0710920B0710920C0727
:104BC000C09109078091DD061816DCF4282F082E05
:104BD000000C330B215031094C2F0C2E000C550BBF
:104BE0004217530774F0CFEFC80F8C2F90E0A0E06E
:104BF000B0E08093090790930A07A0930B07B09346
:104C00000C071092E2078091E107C81714F4C093D3
:104C1000E1078091E107082E000C990B03962C2FD9
:104C20000C2E000C330B8217930724F48DEF8C0F9E
:104C30008093E1071091E107D0E0112341F08091CA
:104C4000800790918107891B8F70E1F435C08091B6
:104C50008901882351F081E0C11180E003E023E065
:104C600042EB5AE06D2F0E948D258091E907882341
:104C700031F3C111E4CF0E9476258091E2078823A9
:104C8000F1F265C0113091F580918901882359F0C6
:104C900081E0C13009F080E00EE32EE34DEA5AE0F6
:104CA0006D2F0E948D258091E9078823F1F1C13095
:104CB000E1F58CE492E233C01130C1F480918901B6
:104CC000882359F081E0C13009F080E00EE32EE343
:104CD00045EA5AE06D2F0E948D258091E9078823CF
:104CE00021F1C13011F58BE69EE119C01230E9F4D3
:104CF00080918901882359F081E0C23009F080E079
:104D00000EE32EE34DE95AE06D2F0E948D25809130
:104D1000E907882351F0C23041F48CE994E30E9402
:104D2000A8AD8091E207811112C0DF5F1F5FD43010
:104D300009F083CF83E08093DD068091BD0787FF74
:104D400006C0DF91CF911F910F910C947625DF91D2
:104D5000CF911F910F9108950F931F93CF938C01C3
:104D6000C0E0F801EC0FF11D6081662331F084E4AE
:104D700097E00E94B451CF5FF4CFCF911F910F9174
:104D80000895CF93DF93EC01FE016491662331F027
:104D900084E497E00E94B4512196F6CFDF91CF9141
:104DA00008950F931F93CF93DF938C01EB0161E084
:104DB00081E00E94814AC8010E94C1262097B1F07B
:104DC0008AE30E949C4EFE019F012C1B3D0B8191AA
:104DD0008111FACF61E084E1821B0E94814ACE01F9
:104DE000DF91CF911F910F910C94AC26DF91CF9161
:104DF0001F910F91089569E771E080E00E94964A43
:104E000061E771E081E00E94964A69E671E082E024
:104E10000E94964A61E671E086E00E94964A69E542
:104E200071E087E00E94964A61E571E083E00C94AE
:104E3000964A44E064E184E497E00E94C44A0E94F8
:104E4000FB2684E497E00C94BD518F929F92AF9221
:104E5000BF92CF92DF92EF92FF920F931F93CF9367
:104E6000DF93CDB7DEB72A970FB6F894DEBF0FBE3B
:104E7000CDBF1092E30760E080E00E94814A82E0AB
:104E80000E949C4E20E030E040E05FE36091980398
:104E90007091990380919A0390919B030E9458AF5F
:104EA0000E94C4B07A8369838E010F5F1F4FC801CF
:104EB0000E9477550E94A74E8FE20E949C4E6091FF
:104EC0009C0370919D03072E000C880B990B0E9488
:104ED0005AB720E030E040E05FE30E9458AF0E9404
:104EE000C4B07A836983C8010E9442550E94A74ECC
:104EF0008AE99AE00E94C12660919C0370919D030B
:104F0000072E000C880B990B0E945AB720E030E066
:104F100040E251E40E9453B787FF03C080E20E9441
:104F20009C4E60E08AE00E94814A80E00E949C4E94
:104F300020E030E040E05FE360915C0670915D0648
:104F400080915E0690915F060E9458AF0E94C4B0A7
:104F50007A836983C8010E9477550E94A74E8FE229
:104F60000E949C4E6091A4037091A503072E000C33
:104F7000880B990B0E945AB720E030E040E05FE3D5
:104F80000E9458AF0E94C4B07A836983C8010E940E
:104F900042550E94A74E87E99AE00E94C12660917F
:104FA000A4037091A503072E000C880B990B0E9497
:104FB0005AB720E030E040E251E40E9453B787FF47
:104FC00003C080E20E949C4E0E94DE50C090D90631
:104FD000D090DA06E090DB06F090DC069B01AC0195
:104FE0002C193D094E095F0957FD13C02091D806C1
:104FF00020952093D806DC01CB018A549C4FAF4FFB
:10500000BF4F8093D9069093DA06A093DB06B09346
:10501000DC06FF24F3948091D806811101C0F12CA5
:1050200061E080E00E94814AFF2029F085E99AE052
:105030000E94C1260DC080912D04811102C08FE312
:1050400005C08091A6038111F1CF80E20E949C4EA1
:1050500060911C0770911D0780911E0790911F079A
:105060000E94C4B07A836983C8010E94D3540E940D
:10507000A74E80E20E949C4EFF2029F083E99AE02F
:105080000E94C1260DC080912E04811102C08FE3C1
:1050900005C08091A7038111F1CF80E20E949C4E50
:1050A000609120077091210780912207909123073A
:1050B0000E94C4B07A836983C8010E94D3540E94BD
:1050C000A74E61E08CE00E94814AFF2029F081E92F
:1050D0009AE00E94C1260DC080912F04811102C068
:1050E0008FE305C08091A8038111F1CF80E20E9477
:1050F0009C4E2CEA35EC47E257E36091240770910F
:10510000250780912607909127070E9458AF20E03D
:1051100030E048EC52E40E94B9B70E94C4B06B0181
:105120007C0197FD16C0603137E273078105910558
:10513000D4F020E137E240E050E00E9469BBCA01B0
:10514000B9012AE030E040E050E00E9469BB605DB8
:105150000BC0F094E094D094C094C11CD11CE11C0D
:10516000F11C6DE201C060E26093C30748EEC41613
:1051700043E0D406E104F10494F0C701B60128EE3F
:1051800033E040E050E00E9469BBCA01B9012AE067
:1051900030E040E050E00E9469BB605D01C060E229
:1051A0006093C407C701B60124E630E040E050E058
:1051B0000E9469BB6AE0862E912CA12CB12CCA01F9
:1051C000B901A50194010E9469BB605D6093C507A8
:1051D000C701B601A50194010E9469BB6B017C0166
:1051E000672B682B692B79F08EE28093C607CA0182
:1051F000B901A50194010E9469BB605D6093C70776
:1052000080E38C0D15C0CA01B901A50194010E946B
:1052100069BB662339F08EE28093C607605D6093B8
:10522000C70705C080E28093C7078093C60780E266
:105230008093C8071092C90783EC97E00E94A74E9D
:1052400062E080E00E94814A86E00E949C4E86E1F6
:1052500091E00E9477550E94A74E85E20E949C4EE5
:105260000E94264E2CE3C22ED12CE12CF12CA7015A
:1052700096010E9447BBCA01B901A70196010E948D
:1052800047BBC90124363105B8F47F936F9368E1B9
:1052900070E00E941AAF9F938F9387E89AE09F93E4
:1052A0008F931F930F930E9423B70FB6F894DEBF1E
:1052B0000FBECDBF95E012C07F936F933F932F93A6
:1052C0008FE79AE09F938F931F930F930E9423B7CA
:1052D0000FB6F894DEBF0FBECDBF96E062E083E16B
:1052E000891B0E94814A87E00E949C4EC8010E944F
:1052F000AC2663E080E00E94814A8CE891E00E9445
:10530000AC268091E907882349F00E94192740E0E4
:1053100050E0BA0185EC95E20E944A2520911601E1
:10532000309117014091090750910A0760910B07CE
:1053300070910C07C901840F951F2436310524F4A0
:10534000853691053CF416C02436310531F084369B
:10535000910584F484E690E00DC04B305105610561
:10536000710514F00A9706C0463F5F4F6F4F7F4F9D
:105370006CF40A9690931701809316011092090716
:1053800010920A0710920B0710920C0780911601D9
:10539000909117018A3091053CF0883E43E09407D4
:1053A0002CF087EE93E002C08AE090E09093170122
:1053B000809316012A960FB6F894DEBF0FBECDBFBC
:1053C000DF91CF911F910F91FF90EF90DF90CF90E1
:1053D000BF90AF909F908F90089510929D03109270
:1053E0009C031092A5031092A4030E94684A109295
:1053F0009D0310929C0310925B065D981092A5038A
:105400001092A40310925A065C980895CF92DF92EE
:10541000EF92FF920F931F93CF93DF9300D0CDB7FE
:10542000DEB77C018A0180914601882309F443C0DC
:10543000E7E5F6E084916F019FEFC91AD90A882346
:1054400041F069837A830E94B415F60169817A81FB
:10545000F1CFFB0184916F019FEFC91AD90A88230C
:1054600021F00E94B415F601F5CFEAEDF9E0849140
:105470006F019FEFC91AD90A882321F00E94B41541
:10548000F601F5CFF7FC0AC0B701FF0C880B990BAA
:105490000E941B178AE00E94B4150DC0E5EDF9E0EB
:1054A00084917F019FEFE91AF90A882321F00E9475
:1054B000B415F701F5CF80916006811108C01092F4
:1054C000460181E080936006C8010E9442470F9028
:1054D0000F90DF91CF911F910F91FF90EF90DF9090
:1054E000CF900C94ED291F920F920FB60F921124BA
:1054F0000BB60F922F933F934F935F936F937F93CE
:105500008F939F93AF93BF93CF93DF93EF93FF93CB
:1055100080916E008B7F80936E0078948091500113
:10552000811112C080915B0680939A06882311F046
:105530005D9A01C05D9880915A06809399068823F0
:1055400011F05C9A01C05C9890919A06809150018C
:10555000981708F45D9890919906809150019817DA
:1055600008F45C98809150018F5F8F778093500191
:10557000E0914E01F0914F01EF30F10508F0AFC01E
:10558000EA5BFF4F0C9442AF10927B0087E480935C
:105590007C0080917A00806480937A0081E090E0C2
:1055A0001AC02091780030917900809189069091FD
:1055B0008A06A0918B06B0918C06820F931FA11DC5
:1055C000B11D8093890690938A06A0938B06B093B1
:1055D0008C0682E090E090934F0180934E017FC053
:1055E00010927B0086E480937C0080917A00806436
:1055F00080937A0083E090E0EECF209178003091A4
:1056000079008091850690918606A0918706B091D9
:105610008806820F931FA11DB11D8093850690936C
:105620008606A0938706B093880684E090E0D3CFE7
:1056300085E090E0D0CF86E090E0CDCF87E090E0AD
:10564000CACF88E090E0C7CF89E090E0C4CF8AE07D
:1056500090E0C1CF8BE090E0BECF8DE090E0BBCF7B
:1056600010927B0081E480937C0080917A008064BA
:1056700080937A008EE090E0AECF2091BB072E3071
:1056800000F5809178009091790090938406809342
:105690008306853833E0930738F01092BB071092E9
:1056A000BA071092B9070DC04091B9075091BA07D7
:1056B000840F951F9093BA078093B9072F5F2093AB
:1056C000BB0710924F0110924E01809182068F5FAE
:1056D0008093820604C010924F0110924E01809177
:1056E0008206803108F4B9C0109282068091590672
:1056F000811113C08091890690918A06909381064A
:1057000080938006809185069091860690937F060F
:1057100080937E0681E08093590680E1E9E8F6E017
:10572000DF011D928A95E9F7109285061092860690
:105730001092870610928806C0918006D09181064B
:10574000D195C195D10980915706909158069195B0
:10575000819591098C179D07CCF460919C03709101
:105760009D03072E000C880B990B0E945AB720E06E
:1057700030E0A9010E94B8B1181644F440E35AE0A1
:105780006DE37AE080E090E00E94062A80914C016F
:1057900090914D01919581959109C817D907CCF445
:1057A00060919C0370919D03072E000C880B990B50
:1057B0000E945AB720E030E0A9010E94B8B1181643
:1057C00044F440E65AE06DE67AE080E090E00E9422
:1057D000062AC0917E06D0917F0680915506909151
:1057E00056068C179D07CCF06091A4037091A50319
:1057F000072E000C880B990B0E945AB720E030E06E
:10580000A9010E94B8B1181644F44FE15AE06DE3C3
:105810007AE08FEF9FEF0E94062A80914A019091D3
:105820004B01C817D907CCF06091A4037091A50370
:10583000072E000C880B990B0E945AB720E030E02D
:10584000A9010E94B8B1181644F44FE45AE06DE67D
:105850007AE08FEF9FEF0E94062A80916E008460AD
:1058600080936E00FF91EF91DF91CF91BF91AF9147
:105870009F918F917F916F915F914F913F912F9168
:105880000F900BBE0F900FBE0F901F9018952F9288
:105890003F924F925F926F927F928F929F92AF92C0
:1058A000BF92CF92DF92EF92FF920F931F93CF930D
:1058B000DF93EC0146E651E181E090E0FA012591A9
:1058C0003491C217D3070CF05DC09C0121503109FF
:1058D000220F331F220F331FD901AC59BE4EFD01D9
:1058E000659174912E593E4EF901A590B490FC013A
:1058F000EE0FFF1FEE0FFF1FEC59FE4EE590F490E8
:10590000FD01C590D490FA0105911491F9012590FB
:105910003490072E000C880B990B0E945AB72B016C
:105920003C01CA19DB09BE01DD0F880B990B0E94EF
:105930005AB74B015C01B7016C197D09072E000CA9
:10594000880B990B0E945AB79B01AC01C501B401A9
:105950000E94B9B76B017C01B80162197309072E67
:10596000000C880B990B0E945AB79B01AC01C70130
:10597000B6010E9452B09B01AC01C301B2010E946A
:1059800058AF11C001964C5F5F4F8032910509F00E
:1059900095CFE0EEF1E165917491072E000C880B34
:1059A000990B0E945AB7DF91CF911F910F91FF90F1
:1059B000EF90DF90CF90BF90AF909F908F907F90AF
:1059C0006F905F904F903F902F9008958091800648
:1059D000909181060E94C94960939803709399033E
:1059E00080939A0390939B0380917E0690917F060B
:1059F0000E94472C60935C0670935D0680935E0660
:105A000090935F06A8958FB7F894109259068FBFB0
:105A100008952F923F924F925F926F927F928F9252
:105A20009F92AF92BF92CF92DF92EF92FF92CF936D
:105A3000DF93CDB7DEB72C970FB6F894DEBF0FBE5D
:105A4000CDBF80915906882309F4D4C10E94E62C69
:105A50000E94DE506D837E838F83988760909C03C5
:105A600070909D03209098033090990340909A0382
:105A700050909B03B301072C000C880B990B0E94DC
:105A80005AB7A20191010E9457AF4B015C0160938C
:105A9000760670937706809378069093790620EDCA
:105AA0003CEC4CE45DE360911A0170911B01809124
:105AB0001C0190911D010E94B9B76B017C012091DE
:105AC0007206309173064091740650917506C201BA
:105AD000B1010E9457AF9B01AC01C701B6010E9402
